:100000000C947C010C94AD010C94AD010C94AD01E9
:100010000C94AD010C94AD010C94AD010C94AD01A8
:100020000C94AD010C94AD010C94AD010C94AD0198
:100030000C94AD010C94AD010C94AD010C94AD0188
:100040000C94AD010C94AD010C94AD010C94AD0178
:100050000C94AD010C94AD010C94AD010C94750C95
:100060000C94AD010C94D1030C94A7030C94AD0136
:100070000C94AD010C94AD010C94AD010C94AD0148
:100080000C94AD010C94AD010C94AD010C94AD0138
:100090000C94AD010C94AD010C94AD010C94CF0700
:1000A0000C94AD010C94AD010C94AD010C94AD0118
:1000B0000C94AD010C94AD010C94AD010C94AD0108
:1000C0000C94AD010C94AD010C94AD010C94AD01F8
:1000D0000C94AD010C94AD010C94AD010C94AD01E8
:1000E0000C94AD01320437043C0446045004C904A6
:1000F0005A0462046A0474047E0488049704A10408
:10010000C904AB04B504BF04E10AE40AD30AD70A60
:10011000DB0A1B0BE80AEC0AF20AF60AFA0A000BE1
:10012000040B080B1B0B0E0B120B160B0C94C904C3
:100130000C94D70A0C9472030C9442020C946A0437
:100140000C9488040C94DA010C94BF040C94F20A09
:100150000C94A2030C947E040C94AB040C94AF0199
:100160000C94DB0A0C94FD010C9446040C9450048E
:100170000C9497040C94040B0C9416030C94E80A4A
:100180000C9417030C9437040C94E10A0C94381562
:100190000C94160B0C94000B0C9432040C94EC0A87
:1001A0000C943A030C9474040C94F60A0C94FA0A16
:1001B0000C941B0B0C94E40A0C940E0B0C94B504D9
:1001C0000C945A040C943C040C9462040C940B029E
:1001D0000C94120B0C9489020C94D30A0C944203D5
:1001E0000C94A1040C94E9010C94080B0C942603C4
:1001F00000002100240027002A002D0030003300D9
:1002000001010000040107010A010000220025008D
:1002100028002B002E0031003400020100000501EF
:1002200008010B0105050505070508080808020275
:1002300002020A0A08080404040401010101010180
:1002400001010303030303030303040707070C0C63
:100250000C0C0C0C0C0C020202020606060606062A
:1002600006060B0B0B0B0B0B0B0B010210202008CF
:100270000810204010204080020102010804020101
:100280000102040810204080804020100804020170
:1002900080040201804020100804020108040201C9
:1002A0000102040810204080010204081020408050
:1002B00000000A0B02090C0D0E08070304010000E0
:1002C000000000000000000000000000000000002E
:1002D00000000000000000000000000012111000EB
:1002E000000000000000000000000000000000000E
:1002F000000000000000381511241FBECFEFD1E22E
:10030000DEBFCDBF00E00CBF12E0A0E0B2E0ECEA3F
:10031000F1E300E00BBF02C007900D92A235B107D8
:10032000D9F729E0A2E5B2E001C01D92A730B207DB
:10033000E1F711E0CCE7D1E000E006C02197010928
:10034000802FFE010E94F615CB37D10780E0080709
:10035000A9F70E94BF0C0C94D4180C940000CF9203
:10036000DF92EF92FF920F931F93CF93DF936C0175
:100370007A018B01C0E0D0E0CE15DF0589F0D8010D
:100380006D918D01D601ED91FC910190F081E02DF0
:10039000C6011995892B11F47E0102C02196ECCF7C
:1003A000C701DF91CF911F910F91FF90EF90DF90E8
:1003B000CF900895FC01538D448D252F30E0842F7C
:1003C00090E0821B930B541710F0CF96089501977D
:1003D0000895FC01918D828D981761F0828DDF0167
:1003E000A80FB11D5D968C91928D9F5F9F73928F28
:1003F00090E008958FEF9FEF0895FC01918D828D1D
:10040000981731F0828DE80FF11D858D90E00895E9
:100410008FEF9FEF0895FC01918D228D892F90E041
:10042000805C9F4F821B91098F73992708958CEEF2
:1004300097E00E940B0221E0892B09F420E0822F33
:100440000895FC01848DDF01A80FB11DA35ABF4F91
:100450002C91848D90E001968F739927848FA689C3
:10046000B7892C93A089B1898C9180648C93938DEA
:10047000848D981306C00288F389E02D80818F7DDA
:1004800080830895EF92FF920F931F93CF93DF9392
:10049000EC0181E0888F9B8D8C8D981305C0E889D5
:1004A000F989808185FD24C0F62E0B8D10E00F5F49
:1004B0001F4F0F731127E02E8C8DE8120CC00FB662
:1004C00007FCFACFE889F989808185FFF5CFCE0155
:1004D0000E942102F1CF8B8DFE01E80FF11DE35A3E
:1004E000FF4FF0820B8FEA89FB898081806207C011
:1004F000EE89FF896083E889F9898081806480833F
:1005000081E090E0DF91CF911F910F91FF90EF90EC
:100510000895CF93DF93EC01888D8823C9F0EA8991
:10052000FB89808185FD05C0A889B9898C9186FDEC
:100530000FC00FB607FCF5CF808185FFF2CFA889E9
:10054000B9898C9185FFEDCFCE010E942102E7CFC2
:10055000DF91CF91089580E090E0892B21F00E94F7
:100560001702811125C080E090E0892B41F080E0E6
:1005700090E0892B21F00E94000081111CC080E0D6
:1005800090E0892B41F080E090E0892B21F00E94DF
:100590000000811113C080E090E0892BA1F080E081
:1005A00090E0892B81F00E94000081110AC008951B
:1005B0000E940000D8CF0E940000E1CF0E940000FE
:1005C000EACF0C940000089585ED8093BC008091E3
:1005D000BC0084FDFCCF1092C607089540913707F8
:1005E000262F30E0240F311D21323105DCF420911B
:1005F000C6072430C9F4FC0180E090E0861758F467
:10060000309137072191DC01AB5EB84FA30FB11DCC
:100610002C930196F3CF80913707680F60933707CB
:1006200080E0089581E0089582E008950895E091C2
:10063000C8078091C707E81730F4F0E0E753F84F98
:10064000808190E008958FEF9FEF08959091C80703
:100650008091C707981750F4E92FF0E0E753F84F5F
:10066000208130E09F5F9093C80702C02FEF3FEFDB
:10067000C90108958091C70790E02091C807821BA7
:1006800091090895CF92DF92EF92FF920F931F93FB
:10069000CF93DF937C01262F972F8A018091EB0760
:1006A000882391F0C62FD72F6E01C40ED51ECC150E
:1006B000DD0571F06991D701ED91FC910190F08118
:1006C000E02DC7011995F3CF642F822F0E94EE020F
:1006D000C801DF91CF911F910F91FF90EF90DF90B4
:1006E000CF900895CF93DF931F92CDB7DEB7698384
:1006F0002091EB072223D1F02091E907203240F02E
:1007000021E030E0FC013383228380E090E015C0DB
:100710008091EA07E82FF0E0E058F84F9981908344
:100720008F5F8093EA078093E90705C061E0CE01FF
:1007300001960E94EE0281E090E00F90DF91CF9150
:100740000895089580E090E008950E94CF181F92C8
:100750000F920FB60F9211240BB60F922F933F9367
:100760004F935F936F937F938F939F93AF93BF93B9
:10077000EF93FF938CEE97E00E942102FF91EF919F
:10078000BF91AF919F918F917F916F915F914F91A9
:100790003F912F910F900BBE0F900FBE0F901F90A7
:1007A00018951F920F920FB60F9211240BB60F924D
:1007B0002F938F939F93EF93FF93E091FC07F0911A
:1007C000FD078081E0910208F091030882FD12C0CC
:1007D0009081809105088F5F8F73209106088217A2
:1007E00051F0E0910508F0E0E451F84F958F8093C7
:1007F000050801C08081FF91EF919F918F912F910A
:100800000F900BBE0F900FBE0F901F9018950F9377
:100810001F93CF93DF93EB0177FF03C0D195C19571
:10082000D109FC010081118161E0802F0E942F0B12
:10083000209709F4B1C0CF3FD10509F4AFC0F8014A
:10084000FF27E055FD4FE4914E2F50E0FA0131971C
:10085000E231F10508F09DC08827EE58FF4F8F4F19
:100860000C94F61584B5806884BDC7BD9FC084B55F
:10087000806284BDC8BD9AC08091800080688093EA
:100880008000D0938900C093880090C08091800040
:10089000806280938000D0938B00C0938A0086C0D2
:1008A00080918000886080938000D0938D00C093F9
:1008B0008C007CC08091B00080688093B000C093B1
:1008C000B30074C08091B00080628093B000C09388
:1008D000B4006CC080919000806880939000D093A9
:1008E0009900C093980062C08091900080628093CC
:1008F0009000D0939B00C0939A0058C080919000C4
:10090000886080939000D0939D00C0939C004EC05F
:100910008091A00080688093A0008091A0008F7BD0
:100920008093A000D093A900C093A8003FC08091FD
:10093000A00080628093A000D093AB00C093AA0077
:1009400035C08091A00088608093A000D093AD0056
:10095000C093AC002BC0809120018068809320015F
:10096000D0932901C093280121C080912001806289
:1009700080932001D0932B01C0932A0117C080914E
:100980002001886080932001D0932D01C0932C0119
:100990000DC0C038D10514F460E001C061E0802FC3
:1009A000DF91CF911F910F910C94B20ADF91CF91FB
:1009B0001F910F910895CF93DF93EC01611107C050
:1009C00061E08A810E94B20A60E08C8106C061E029
:1009D0008C810E94B20A60E08A81DF91CF910C94F1
:1009E000B20ACF93DF93EC01862F688379835B8310
:1009F0004A833D832C8361E00E942F0B61E08A8152
:100A00000E942F0B61E08C81DF91CF910C942F0B12
:100A10000F931F93CF93DF931F92CDB7DEB78C0157
:100A2000FC01818169830E942D09698189E898E030
:100A30000E9472030E948209F801808362E0818132
:100A40000E94370989E898E00E94260300E010E040
:100A5000182F89E898E00E942603802B912B0F9095
:100A6000DF91CF911F910F9108950F931F93CF9313
:100A7000DF931F92CDB7DEB78C01FC0181816983C2
:100A80000E942D09698189E898E00E9472030E9402
:100A90008209F801808361E081810E94370989E839
:100AA00098E00E9426030F90DF91CF911F910F9144
:100AB00008954F925F926F927F928F929F92AF9222
:100AC000BF92CF92DF92EF92FF920F931F93CF933B
:100AD000DF936C017B01EA0160E50E9435058F5FC1
:100AE000880F90E09983888366E4C6010E943505EB
:100AF000082F10E00F5F1F4F1D830C83A881B0E00B
:100B000020E03FE24AE350E00E94FE156C507E4F29
:100B10008F4F9F4FE8EE8E2EE3E09E2EA12CB12C3E
:100B2000A50194010E94D41529013A01D8010E941F
:100B300009167694679457944794640D751D861D25
:100B4000971DA50194010E94D4152A873B874C87E5
:100B50005D8761E5C6010E9408058C01112702C06E
:100B6000000F111F9A95E2F70F5F1F4F1F830E832F
:100B7000A881B0E020E03FE24AE350E00E94FE1589
:100B80006C507E4F8F4F9F4FA50194010E94D4154A
:100B900029013A01D8010E94FE1576946794579472
:100BA0004794640D751D861D971DA50194010E9433
:100BB000D4152E873F87488B598B60E7C6010E946A
:100BC00035058F5F880F90E09B838A8361E7C601BC
:100BD0000E9408059C01992702C0880F991F3A9529
:100BE000E2F7019699878887F7012381222331F064
:100BF0002E813F81821B930B99878887AA81B0E061
:100C000020E03FE24AE350E00E94FE156C507E4F28
:100C10008F4F9F4F28EEC22E23E0D22EE12CF12CD5
:100C2000A70196010E94D41549015A01B694A794D0
:100C300097948794A885B9850E94FE15680D791D43
:100C40008A1D9B1DA70196010E94D4152A8B3B8B00
:100C50004C8B5D8BDF91CF911F910F91FF90EF90A7
:100C6000DF90CF90BF90AF909F908F907F906F90CC
:100C70005F904F900895CF93DF93EB0161E00E9466
:100C8000350584FB992790F9988383FB992790F980
:100C90009A8382FB992790F9998386FB992790F98B
:100CA0009B83982F991F9927991F9C83DF91CF9140
:100CB00008950F931F93CF93DF9300D0CDB7DEB786
:100CC0008C01FC0181814B835A8369830E942D0929
:100CD000698189E898E00E9472035A81652F89E84A
:100CE00098E00E9472034B81642F89E898E00E948B
:100CF00072030E948209F80180830F900F900F9079
:100D0000DF91CF911F910F9108952F923F924F92B3
:100D10005F926F927F928F929F92AF92BF92CF928B
:100D2000DF92EF92FF920F931F93CF93DF93CDB794
:100D3000DEB76B970FB6F894DEBF0FBECDBF1C01B8
:100D40004A015B01BE01695E7F4F0E943B06AE0116
:100D50004F5F5F4FBE01695E7F4FC1010E94590521
:100D60008F89882349F08B859C85AD85BE858A5CFB
:100D7000944FAF4FBF4F04C088EE98E0A0E0B0E0C2
:100D8000298D222369F04B855C856D857E854E54C7
:100D90005D4F6F4F7F4F440F551F661F771F0BC06E
:100DA000288D222361F04B855C856D857E854C56B0
:100DB0005D4F6F4F7F4F840F951FA61FB71FCA8CC3
:100DC000CC2061F04F85588969897A894C565D4FEE
:100DD0006F4F7F4F840F951FA61FB71FDB8CDD2041
:100DE00009F469C02C013D0126E2420E22E0521EA8
:100DF000611C711C84149504A604B70408F45EC039
:100E0000AB81B0E020E03FE24AE350E00E94FE15F3
:100E10006C507E4F8F4F9F4F28EE33E040E050E004
:100E20000E94D41579018A01A5019401241935097C
:100E300046095709A8EEB3E00E94FE1527013801C4
:100E40007694679457944794640D751D861D971D7D
:100E5000A80197010E94D4158901CC2021F00F81AF
:100E60001885020F131F01151105C9F00150110952
:100E700020E030E040E050E0D901C8018827892B0C
:100E80008A2B8B2B39F036952795179507954F5F51
:100E90005F4FF2CF542F4427402B512B02C040E02C
:100EA00050E061E7C1010E945906F10180869186F8
:100EB000A286B38604C0DD24D39401C0D12C8D2D2D
:100EC0006B960FB6F894DEBF0FBECDBFDF91CF910A
:100ED0001F910F91FF90EF90DF90CF90BF90AF9058
:100EE0009F908F907F906F905F904F903F902F904A
:100EF00008950F931F93CF93DF931F921F92CDB747
:100F0000DEB78C01FC0181814A8369830E942D092F
:100F1000698189E898E00E9472034A81642F89E818
:100F200098E00E9472030E948209F80180830F906A
:100F30000F90DF91CF911F910F910895CF93DF9381
:100F4000EC01462F416060E00E9479070E94690C25
:100F50007E836D8363E1CE010E943505877089F43D
:100F60008A819B81892BB1F30E94690C2D813E817E
:100F7000621B730B8A819B818617970758F780E065
:100F80000BC041E06BE0CE010E94790740E060E0D9
:100F9000CE010E94790781E0DF91CF9108951F92E1
:100FA0000F920FB60F9211240BB60F922F933F930F
:100FB0004F935F936F937F938F939F93AF93BF9361
:100FC000EF93FF938091B900887F803609F49CC02D
:100FD00068F5883209F45BC090F4803109F454C09C
:100FE00038F4882309F4F6C0883009F44DC0F6C0FF
:100FF000883109F44CC0803209F45DC0EFC0803400
:1010000009F468C048F4803309F455C0883309F006
:10101000E5C08093C407D8C0803509F44FC0883537
:1010200009F45DC0883409F0D9C0D6C0883909F404
:10103000C7C0A8F4883709F467C038F4883609F4C3
:1010400063C0803709F460C0C9C0883809F4B8C0EB
:10105000803909F45FC0803809F0C0C05BC0803BB4
:1010600009F486C038F4803A09F466C0883A09F475
:101070007FC0B4C0803C09F4A7C0883C09F4A4C078
:10108000883B09F48AC0AAC08091C10710C0909122
:10109000C3078091C207981770F5E091C30781E0FC
:1010A0008E0F8093C307F0E0E056F84F8081809365
:1010B000BB0085EC86C08093C4078EC0E091C30757
:1010C00081E08E0F8093C3078091BB00F0E0E05673
:1010D000F84F80839091C3078091C2076EC0E09162
:1010E000C30781E08E0F8093C3078091BB00F0E0BF
:1010F000E056F84F80838091C50781116DC081E073
:101100008093C00784EA61C083E08093C607109291
:101110005B07CFCF80915B07803208F051C0E09130
:101120005B0781E08E0F80935B078091BB00F0E04E
:10113000E55CF84F8083BDCF85EC8093BC001092B6
:10114000C60780915B07803230F4E0915B07F0E0E6
:10115000E55CF84F108260915B0770E0E091390721
:10116000F0913A078BE397E0199510925B0736C030
:1011700084E08093C6071092380710923707E091F9
:101180003507F0913607199580913707811105C011
:1011900081E08093370710921507E091380781E0CE
:1011A0008E0F80933807F0E0EB5EF84F80818093DC
:1011B000BB009091380780913707981708F479CFD2
:1011C00085E88093BC000AC085EC8093BC00109237
:1011D000C60704C01092C4070E94E402FF91EF9179
:1011E000BF91AF919F918F917F916F915F914F913F
:1011F0003F912F910F900BBE0F900FBE0F901F903D
:1012000018958F929F92AF92BF92CF92DF92EF92FA
:10121000FF926C010E94690C4B015C01AA24BB2463
:101220000D2C000CEE08FF080E94690CDC01CB01BC
:1012300088199909AA09BB098C159D05AE05BF053A
:1012400018F40E94900BF0CFFF90EF90DF90CF90BA
:10125000BF90AF909F908F90089591E09093EB078F
:101260008093D2081092EA071092E90708959091AE
:10127000C6079111FCCF613208F060E291E09093D3
:10128000C6079093C5072FEF2093C4071092C3079A
:10129000260F2093C2079093C1079091C107880F32
:1012A000892B8093C1078091C007813061F410922F
:1012B000C0078091C1078093BB008091BC0083FD73
:1012C000F8CF85EC01C085EE8093BC008091C60705
:1012D0008130E1F38091C307861710F46091C30752
:1012E000A0EAB7E029EC37E0F9018E2F821B8617C0
:1012F00018F48D918193F9CF1092C8076093C707B6
:10130000862F08952091E9079091D208213208F0A4
:101310004AC08091C6078111FCCF32E03093C607E6
:1013200031E03093C5073FEF3093C4071092C307F5
:101330002093C207A0E8B7E040EA57E0FA013E2F49
:10134000341B321718F43D913193F9CF1092C10735
:101350002091C107990F922B9093C1079091C007DC
:10136000913061F41092C0079091C1079093BB0037
:101370009091BC0093FDF8CF95EC01C095EE909351
:10138000BC009091C6079230E1F39091C4079F3F53
:1013900079F08091C407803241F08091C407803396
:1013A00031F084E005C081E003C082E001C083E049
:1013B0001092EA071092E9071092EB070895CF9276
:1013C000DF92EF92FF920F931F93CF93DF93CDB7EE
:1013D000DEB72E970FB6F894DEBF0FBECDBF6C01FF
:1013E00088E60E942D096BE389E898E00E94720369
:1013F0000E9482096EE088E60E94370910E0909111
:10140000C7078091C807981769F089E898E00E949B
:101410002603E1E0F0E0EC0FFD1FE10FF11D8083FA
:101420001F5FEDCF0B8510E0102F00278C85082B58
:10143000119501951109ED84F12CFE2CEE248E8579
:10144000E82A698570E0762F66278A81682B719576
:1014500061957109072E000C880B990B0E9450179B
:1014600020E030E04AE754E40E94621820E030E0D7
:1014700040E058E30E946218F60160837183828322
:101480009383B801110F880B990B0E94501720E02D
:1014900030E04AE754E40E94621820E030E040E087
:1014A00058E30E946218F6016483758386839783EC
:1014B000B701FF0C880B990B0E94501720E030E019
:1014C0004AE754E40E94621820E030E040E058E32C
:1014D0000E946218F6016087718782879387C60130
:1014E0002E960FB6F894DEBF0FBECDBFDF91CF9121
:1014F0001F910F91FF90EF90DF90CF90089560E0E3
:1015000070E08CE597E00E94070460E070E088E6F8
:1015100097E00E94070460E070E082E697E00E9496
:10152000070460E070E08EE697E00C940704CF9328
:10153000DF931F921F92CDB7DEB74A8369830E9463
:101540002D09698189E898E00E9472034A81642F1D
:1015500089E898E00E9472030F900F90DF91CF917D
:101560000C948209362F90E0FC01E055FD4F449128
:10157000FC01E659FD4F2491FC01EC5DFD4F949177
:10158000992309F46BC0442309F455C050E0FA01D3
:101590003197E231F10508F04EC08827EC57FF4F34
:1015A0008F4F0C94F615809180008F7707C0809143
:1015B00080008F7D03C080918000877F80938000B2
:1015C0003AC084B58F7702C084B58F7D84BD33C0A7
:1015D0008091B0008F7703C08091B0008F7D8093A1
:1015E000B00029C0809190008F7707C08091900053
:1015F0008F7D03C080919000877F809390001BC0F7
:101600008091A0008F7707C08091A0008F7D03C0DC
:101610008091A000877F8093A0000DC08091200161
:101620008F7707C0809120018F7D03C080912001BA
:10163000877F80932001E92FF0E0EE0FFF1FE65F28
:10164000FD4FA591B4918FB7F894EC91311103C07F
:1016500020952E2301C02E2B2C938FBF0895CF935E
:10166000DF9390E0FC01E659FD4F2491FC01EC5D15
:10167000FD4F8491882361F190E0880F991FFC0150
:10168000E051FE4FC591D491FC01E65FFD4FA5915D
:10169000B491611109C09FB7F89488812095822385
:1016A0008883EC912E230BC0623061F49FB7F894CD
:1016B0003881822F809583238883EC912E2B2C9365
:1016C0009FBF06C08FB7F894E8812E2B28838FBF69
:1016D000DF91CF9108953FB7F8948091CE08909113
:1016E000CF08A091D008B091D10826B5A89B05C01D
:1016F0002F3F19F00196A11DB11D3FBFBA2FA92F91
:10170000982F8827820F911DA11DB11DBC01CD010D
:1017100042E0660F771F881F991F4A95D1F70895F9
:101720004F925F926F927F928F929F92AF92BF92F1
:10173000CF92DF92EF92FF920F931F93CF93DF939D
:10174000CDB7DEB72C970FB6F894DEBF0FBECDBF76
:10175000CE0101960E94DF0949845A846B847C84FF
:101760000E946B0B4B015C01809178079091790787
:10177000A0917A07B0917B07A5019401281B390B32
:101780004A0B5B0BCA01B9010E94501720E034E2FA
:1017900044E759E40E94A6166B017C0120917C0766
:1017A00030917D0740917E0750917F07C301B201C0
:1017B0000E9434169B01AC01C701B6010E94621859
:1017C0009B01AC0160917407709175078091760759
:1017D000909177070E94341620E030E044EB53E408
:1017E0000E9496177B018C0120E030E0A9010E9445
:1017F000A11687FF09C020E030E044EB53E4B701B5
:10180000C8010E94351602C0B701C8018B019C01B6
:10181000009374071093750720937607309377072A
:101820008092780790927907A0927A07B0927B070E
:101830002C960FB6F894DEBF0FBECDBFDF91CF91CF
:101840001F910F91FF90EF90DF90CF90BF90AF90DE
:101850009F908F907F906F905F904F9008958F92A0
:101860009F92AF92BF92CF92DF92EF92FF926B0165
:101870007C010E946B0B4B015C01C114D104E1049B
:10188000F104F1F00E946B0BDC01CB01881999097E
:10189000AA09BB09883E9340A105B10570F321E078
:1018A000C21AD108E108F10888EE880E83E0981E7C
:1018B000A11CB11CC114D104E104F10419F7DDCF5E
:1018C000FF90EF90DF90CF90BF90AF909F908F9060
:1018D00008952FB7F8946091CA087091CB08809151
:1018E000CC089091CD082FBF08951F920F920FB68C
:1018F0000F9211242F933F938F939F93AF93BF9396
:101900008091CA089091CB08A091CC08B091CD08E5
:101910003091C90823E0230F2D3720F40196A11D33
:10192000B11D05C026E8230F0296A11DB11D20930D
:10193000C9088093CA089093CB08A093CC08B093B1
:10194000CD088091CE089091CF08A091D008B09199
:10195000D1080196A11DB11D8093CE089093CF08A8
:10196000A093D008B093D108BF91AF919F918F9170
:101970003F912F910F900FBE0F901F901895CF930E
:10198000DF93CDB7DEB7A7970FB6F894DEBF0FBED3
:10199000CDBF789484B5826084BD84B5816084BDF8
:1019A00085B5826085BD85B5816085BD80916E00FD
:1019B000816080936E00109281008091810082602E
:1019C000809381008091810081608093810080916B
:1019D00080008160809380008091B100846080935A
:1019E000B1008091B00081608093B000809191003F
:1019F000826080939100809191008160809391003A
:101A0000809190008160809390008091A10082601D
:101A10008093A1008091A10081608093A1008091BA
:101A2000A00081608093A00080912101826080935A
:101A30002101809121018160809321018091200109
:101A400081608093200180917A00846080937A0085
:101A500080917A00826080937A0080917A00816020
:101A600080937A0080917A00806880937A00109247
:101A7000C1001092C8071092C7071092EA0710928F
:101A8000E9071092C60781E08093C5071092C0074E
:101A900061E084E10E94B20A61E085E10E94B20A3D
:101AA0008091B9008E7F8093B9008091B9008D7FBD
:101AB0008093B90088E48093B80085E48093BC00EB
:101AC000E091FC07F091FD0782E08083E091F80748
:101AD000F091F9071082E091FA07F091FB078FEC83
:101AE000808310920408E0910008F091010886E0DC
:101AF0008083E091FE07F091FF0780818061808301
:101B0000E091FE07F091FF07808188608083E0917B
:101B1000FE07F091FF07808180688083E091FE07D7
:101B2000F091FF0780818F7D80832AE632E04FEFBE
:101B30005FEFBA0180E090E0F901E80FF91F408300
:101B40005183628373838C5B9F4F8438A4E09A0730
:101B500099F72C5F3F4FB2E02E3A3B0759F726E149
:101B600030E047E150E063E070E084E692E00E94FC
:101B7000F10429E130E048E150E064E070E08EE5F6
:101B800092E00E94F1042BE130E04AE150E065E090
:101B900070E088E592E00E94F1042DE130E04CE134
:101BA00050E066E070E082E592E00E94F10486E099
:101BB000EEE5F2E0ACE5B7E001900D928A95E1F731
:101BC00086E0E2E5F2E0A2E6B7E001900D928A95A8
:101BD000E1F786E0E4E6F2E0A8E6B7E001900D92D6
:101BE0008A95E1F786E0E8E5F2E0AEE6B7E001903D
:101BF0000D928A95E1F761E082E30E942F0B61E08C
:101C000083E30E942F0B61E084E30E942F0B1EEB05
:101C1000E12E18E0F12E1CE2412F6AE8C70101977E
:101C20000E947907F701108360E088E0810F0E942D
:101C30002F0B60E570E080E090E00E942F0C1150C7
:101C4000FCE0EF1AF108193239F7FAE9EF2EF8E063
:101C5000FF2E09E918E06E0127E1C20ED11CA6E0B3
:101C60009A2E9C0CAA24A394B12C69E8C8010E9466
:101C70003505482F416069E8C8010E94790740E0B6
:101C800068E8C8010E94790741E060E8C8010E9445
:101C9000790741E06FEFC8010E94790740E060E0FA
:101CA000C8010E94790761E9C8010E943505D70182
:101CB00016968C9341E060E0C8010E94790740E0ED
:101CC0006FEFC8010E94790740E060E8C8010E94F8
:101CD000790760E6C8010E943505482F426160E639
:101CE000C8010E94790740E250E064E4C8010E9404
:101CF00059064FEF61E0C8010E94790741E060E8B2
:101D0000C8010E94790741E06FEFC8010E9479077E
:101D100040E060E0C8010E94790746E06FEFC8012B
:101D20000E94790763E8C8010E943505482F446086
:101D300063E8C8010E94790747E06FEFC8010E947D
:101D4000790741E061E8C8010E94790741E060E855
:101D5000C8010E9479074BE664E9C8010E9479072F
:101D600040E063E8C8010E9479070E94690CF8010D
:101D70007683658363E8C8010E943505811114C02C
:101D8000D80112968D919C911397892B99F30E94FB
:101D9000690CF80125813681621B730B8281938166
:101DA0008617970738F7E1C241E063E8C8010E944F
:101DB000790762E9C8010E943505F82FFF778F2E59
:101DC000382E331C3324331C40E061E8C8010E94E4
:101DD000790746E06FEFC8010E94790763E8C80100
:101DE0000E943505482F4B7F63E8C8010E947907A0
:101DF00041E06FEFC8010E94790741E060E0C8014F
:101E00000E94790740E06FEFC8010E94790740E027
:101E100060E8C8010E947907D7018C910E942D09C2
:101E200060EB89E898E00E9472030E948209F80141
:101E3000808366E0D7018C910E9437093601260124
:101E4000941441F089E898E00E942603F2018193FE
:101E50002F01F6CF41E06FEFC8010E94790740E003
:101E60006FE4C8010E9479074CE26EE4C8010E9449
:101E7000790740E06FEFC8010E94790744EB66EBF9
:101E8000C8010E947907332011F04CE001C040E006
:101E900090E080E0282F269526952695582F57709C
:101EA000F601E20FF11D841710F098110AC0950198
:101EB00001C0220F5A95EAF7209530812323208311
:101EC00009C0208130E002C0359527955A95E2F788
:101ED00020FD9F5F8F5F8033E9F6D7018C910E94D0
:101EE0002D0960EB89E898E00E947203961421F0B6
:101EF000F30161913F01F6CF0E948209D8018C93D2
:101F000041E06FEFC8010E94790740E060E0C8013E
:101F10000E94790740E06FEFC8010E94790740E016
:101F200069E0C8010E94790740E060E1C8010E94B1
:101F3000790740E061E1C8010E94790741E064E26D
:101F4000C8010E9479074FEF65E2C8010E94790736
:101F500040E065E7C8010E94790741E06FEFC801E2
:101F60000E9479074CE26EE4C8010E94790740E0C4
:101F700068E4C8010E94790740E260E3C8010E945A
:101F8000790740E06FEFC8010E94790749E060E3FC
:101F9000C8010E94790740E064E5C8010E94790702
:101FA00044E061E3C8010E94790743E062E3C801AD
:101FB0000E94790743E860E4C8010E94790745E27E
:101FC00066E4C8010E94790740E060E6C8010E940B
:101FD000790740E067E2C8010E94790746E060E5C2
:101FE000C8010E94790740E061E5C8010E947907B5
:101FF00046E962E5C8010E94790748E066E5C80144
:102000000E94790740E367E5C8010E94790740E034
:1020100061E6C8010E94790740E062E6C8010E94BB
:10202000790740E064E6C8010E94790740E065E670
:10203000C8010E94790740EA66E6C8010E94790754
:1020400041E06FEFC8010E94790742E362E2C801F4
:102050000E94790744E167E4C8010E9479074FEFC5
:1020600069E4C8010E94790740E06AE4C8010E945F
:10207000790740E06FEFC8010E9479074AE06AE7FC
:10208000C8010E94790740E06BE7C8010E94790708
:1020900041E268E7C8010E94790741E06FEFC8019B
:1020A0000E94790744E363E2C8010E94790740E097
:1020B00062E4C8010E9479074FEF64E4C8010E94FE
:1020C000790746E265E4C8010E94790745E066E4C5
:1020D000C8010E94790740E460E4C8010E947907C2
:1020E00046E06EE0C8010E9479074AE160E2C8015B
:1020F0000E94790740E463E4C8010E94790740E048
:102100006FEFC8010E94790743E064E3C8010E94B1
:10211000790744E465E3C8010E94790741E06FEF65
:10212000C8010E94790744E061E3C8010E94790771
:1021300049E06BE4C8010E94790745E06CE4C801FE
:102140000E94790744E06DE4C8010E94790740E0ED
:102150006FEFC8010E94790740E064E4C8010E9463
:10216000790740E265E4C8010E94790748E067E426
:10217000C8010E94790748E268E4C8010E94790713
:1021800040E067E6C8010E94790744E060E7C801C3
:102190000E94790741E061E7C8010E9479074EEF8C
:1021A00062E7C8010E94790740E066E7C8010E9423
:1021B000790740E067E7C8010E94790741E06FEFC7
:1021C000C8010E94790741E06DE0C8010E947907CB
:1021D00040E06FEFC8010E94790741E060E8C80164
:1021E0000E94790748EF61E0C8010E94790741E049
:1021F0006FEFC8010E94790741E06EE8C8010E94B4
:10220000790741E060E0C8010E94790740E06FEF84
:10221000C8010E94790740E060E8C8010E94790780
:1022200044E06AE0C8010E94790764E8C8010E949E
:102230003505482F4F7E64E8C8010E94790741E0C8
:102240006BE0C8010E947907BE01635E7F4FC80141
:102250000E943B06AE014F5F5F4FBE01635E7F4F42
:10226000C8010E9459058D8D882349F08B859C8576
:10227000AD85BE858C57924FAF4FBF4F04C086E3EC
:102280009BE0A0E0B0E02F8D222369F04B855C85B8
:102290006D857E854E545D4F6F4F7F4F440F551FA8
:1022A000661F771F0BC02E8D222361F04B855C8546
:1022B0006D857E854C565D4F6F4F7F4F840F951F08
:1022C000A61FB71F28A1222361F04F85588969896D
:1022D0007A894C565D4F6F4F7F4F840F951FA61F15
:1022E000B71F29A1222361F04B895C896D897E8902
:1022F0004A5D5D4F6F4F7F4F840F951FA61FB71F1D
:10230000F80180879187A287B38748EE61E0C80112
:102310000E947907D80118964D915D916D917C913D
:102320001B974032BEE45B076105710518F0C801D8
:102330000E94850641E061E0C8010E94790760E4DF
:10234000C8010E949E07882381F042E061E0C80135
:102350000E94790760E0C8010E949E07882329F047
:1023600048EE61E0C8010E947907045F1F4FECE06E
:10237000EE0EF11CFAECEF16F8E0FF0609F075CC52
:1023800009E918E074EFE72EFF24F394D8011396BF
:10239000FC92EE92129740E45DE063E070E0C801C9
:1023A0000E948506045F1F4FB8E0093C1B0771F7C8
:1023B00046E06DE188E60E94970A46E06AE188E619
:1023C0000E94970A40E16BE188E60E94970A40E08C
:1023D0006CE188E60E94970A42E067E388E60E9483
:1023E000970A46E16AE08CE00E94970A0E946B0B14
:1023F000609378077093790780937A0790937B07AF
:1024000004E110E0CE0101960E94DF0929853A859A
:102410004B855C8560917C0770917D0780917E077C
:1024200090917F070E94351660937C0770937D071B
:1024300080937E0790937F0762E370E080E090E0F6
:102440000E942F0C01501109E9F620E030E040EA2B
:1024500051E460917C0770917D0780917E07909197
:102460007F070E94A61660937C0770937D07809378
:102470007E0790937F07E5E0F7E0FDA3ECA32DE056
:1024800037E03BA32AA365E9A62E68E0B62E390102
:102490004F01E12CF12C09E918E041E060E8C801A6
:1024A0000E94790741E06FEFC8010E94790740E080
:1024B00060E0C8010E947907C7018756974F6C01F9
:1024C000DC0117964C9161E9C8010E94790741E04F
:1024D00060E0C8010E94790740E06FEFC8010E94E8
:1024E000790740E060E8C8010E94790741E060E0B8
:1024F000C8010E9479070E94690CF8017683658300
:1025000060E0C8010E94350580FF18C0D80112960E
:102510008D919C911397892B99F30E94690CF80176
:1025200025813681621B730B828193818617970701
:1025300038F781E0D60114968C9397C20E94690CFB
:10254000D80116967C936E93159763E1C8010E949B
:1025500035058770C9F4F80182819381892BA9F32D
:102560000E94690CD80115962D913C911697621B1B
:10257000730B12968D919C9113978617970728F7E6
:1025800081E0F601848371C26EE1C8010E940805F2
:102590006C0141E06BE0C8010E947907C601F301BC
:1025A000819391933F01D5018D915D01863308F0B0
:1025B000865390917B00282F2870977F922B9093C1
:1025C0007B008770806480937C0080917A008064B7
:1025D00080937A0080917A0086FDFCCF809178000C
:1025E0002091790090E0922BF401819391934F0117
:1025F000045F1F4FFCE0EF0EF11C20E3E216F10434
:1026000009F04BCF10910402409002025090030257
:102610008090000290900102A5E0B2E0E5E0F7E0D2
:1026200040E0219131918D919D918217930708F49B
:102630004F5F37E0ED30F307A1F74230C0F021E102
:10264000249DC001259D900D1124880E991EF40132
:10265000EE0FFF1FEE0FFF1FE659FD4F8FE097E2D1
:10266000A0E0B0E080839183A283B383B5C081E111
:10267000849DF001859DF00D1124E80DF91DEE0FEC
:10268000FF1FEE0FFF1FE659FD4F80819181A28150
:10269000B3818F3F2FEF9207A207B207F1F4809129
:1026A000020790910307092E000CAA0BBB0B808335
:1026B0009183A283B3830DE012E0CE0101961C0149
:1026C000ADE0B7E0BFA3AEA3092C000CAA08BB087D
:1026D000052C000C6608770805C0909303078093CB
:1026E0000207E9CFEEA1FFA181919191FFA3EEA393
:1026F0008739910588F1C501B4010E945017D801AE
:102700002D913D914D915C910E9435160E941817B4
:102710006B017C01C301B2010E945017F8012481B2
:102720003581468157810E9435160E94181721E194
:10273000269FF001279FF00D1124CE0EDF1EC6014B
:10274000880F991F880F991FFC01E659FD4F808162
:102750009181A281B38104C08EEF9FEFAFEFBFEFF5
:10276000F10180839183A283B383085F1F4FF4E05C
:102770002F0E311C22E00D32120709F0B3CF8091E9
:10278000020790910307AC0141505109052E000C3E
:10279000660B770B20E0122F1370E1E0F0E0EC0FF6
:1027A000FD1F34E0139FE00DF11D1124C080D18086
:1027B000E280F380AFEFCA16DA06EA06FA0661F0A5
:1027C000243038F0009739F0C416D506E606F7062F
:1027D00019F02F5FE0CF1FEF10930407E12E012EB9
:1027E000000CFF08BAE51B0290011124C90164EB3B
:1027F00070E00E94C015892B71F501E02B35310581
:102800000CF400E0602F8CE597E00E94DB04602F61
:1028100088E697E00E94DB04602F82E697E00E9442
:10282000DB04602F8EE697E00E94DB0464E470E036
:102830008CE597E00E94070462E370E088E697E089
:102840000E94070465E370E082E697E00E940704B7
:1028500065E370E030C0DD24D394243B31050CF0F7
:10286000D12C01E00D25602F8CE597E00E94DB0460
:102870006D2D88E697E00E94DB046D2D82E697E0DF
:102880000E94DB04602F8EE697E00E94DB0466E680
:1028900070E08CE597E00E94070465E570E088E64B
:1028A00097E00E94070460E570E082E697E00E94EE
:1028B00007046AE570E08EE697E00E94070410FFC7
:1028C00003C084E195E002C082E593E00E94010923
:1028D0000E947F0A8CE291E00E9401090E94900B05
:1028E00060917407709175078091760790917707D2
:1028F0000E941F178B01DD24D394653B710508F4FA
:10290000D12C6D2D8CE597E00E94DB046D2D88E6BF
:1029100097E00E94DB0481E0D8266D2D82E697E0E7
:102920000E94DB046D2D8EE697E00E94DB0464E4D8
:1029300070E08CE597E00E94070462E370E088E6AF
:1029400097E00E94070465E370E082E697E00E944A
:10295000070465E370E08EE697E00E9407040450E8
:1029600011090136114070F40E94900B60917407B8
:102970007091750780917607909177070E941F17D5
:102980008B01EDCF0E947F0A6091000270910102DD
:10299000072E000C880B990B0E945017870123E02B
:1029A000000F111F2A95E1F7035F1D4FD8012D91EC
:1029B0003D914D915C910E9435160E9418177093BD
:1029C0000102609300026091020270910302072EDF
:1029D000000C880B990B0E945017F8012481358157
:1029E000468157810E9435160E9418177093030282
:1029F00060930202809102079091030701969093E1
:102A00000307809302071092FE061092FF061092B1
:102A1000000710920107A6EFB6E04EEE56E0EAA1DD
:102A2000FBA181919191FBA3EAA38D939D93ECA1CE
:102A3000FDA181919191FDA3ECA3FA018193919362
:102A4000AF012AA13BA12551374049F7C7010296A2
:102A500064E070E00E94C0158093040288EE93E069
:102A60000E9401090E94AB0206CD8FEF9FEF97CD28
:102A7000ECEEF7E01382128288EE93E0A0E0B0E083
:102A800084839583A683B78321E332E03183208357
:102A900025EC30E03587248724EC30E03787268723
:102AA00020EC30E0318B208B21EC30E0338B228B1B
:102AB00022EC30E0358B248B26EC30E0378B268BF4
:102AC000118E128E138E148EE9E8F8E013821282B2
:102AD00084839583A683B78383E492E09183808384
:102AE000EBEFF8E089E28183138212821482EFEE29
:102AF000F8E08183138212821482E3EEF8E081838E
:102B0000138212821482E7EDF8E08183138212822D
:102B100014828CE0EBEFF8E0A9E9B8E001900D92A7
:102B20008A95E1F78CE0EFEEF8E0A5EAB8E00190D5
:102B30000D928A95E1F78CE0E3EEF8E0A1EBB8E0C6
:102B400001900D928A95E1F78CE0E7EDF8E0ADEBAE
:102B5000B8E001900D928A95E1F73CE03093D608F9
:102B60002DE02093D5089EE09093D4088FE08093C9
:102B7000D308E5E9F8E030832183928383830895C5
:102B800097FB072E16F4009407D077FD09D00E941A
:102B9000111607FC05D03EF4909581959F4F08953E
:102BA000709561957F4F0895A1E21A2EAA1BBB1B59
:102BB000FD010DC0AA1FBB1FEE1FFF1FA217B30709
:102BC000E407F50720F0A21BB30BE40BF50B661F1F
:102BD000771F881F991F1A9469F7609570958095E3
:102BE00090959B01AC01BD01CF010895EE0FFF1F31
:102BF000881F8BBF0790F691E02D19940E9425162F
:102C0000A59F900DB49F900DA49F800D911D112440
:102C10000895B7FF0C94FE150E94FE15821B930BBE
:102C20000895AA1BBB1B51E107C0AA1FBB1FA61713
:102C3000B70710F0A61BB70B881F991F5A95A9F765
:102C400080959095BC01CD010895A29FB001B39FDE
:102C5000C001A39F700D811D1124911DB29F700DA5
:102C6000811D1124911D08955058BB27AA270E9449
:102C70004C160C9428180E941A1838F00E9421183B
:102C800020F039F49F3F19F426F40C9417180EF431
:102C9000E095E7FB0C940318E92F0E94391858F3CC
:102CA000BA17620773078407950720F079F4A6F531
:102CB0000C945B180EF4E0950B2EBA2FA02D0B018F
:102CC000B90190010C01CA01A0011124FF27591B71
:102CD00099F0593F50F4503E68F11A16F040A22F77
:102CE000232F342F4427585FF3CF469537952795E8
:102CF000A795F0405395C9F77EF41F16BA0B620BE7
:102D0000730B840BBAF09150A1F0FF0FBB1F661F2D
:102D1000771F881FC2F70EC0BA0F621F731F841F70
:102D200048F4879577956795B795F7959E3F08F096
:102D3000B0CF9395880F08F09927EE0F9795879558
:102D400008950E94DF1708F481E008950E94BA16E2
:102D50000C9428180E94211858F00E941A1840F06C
:102D600029F45F3F29F00C94031851110C945C185E
:102D70000C9417180E94391868F39923B1F355235E
:102D800091F3951B550BBB27AA276217730784077E
:102D900038F09F5F5F4F220F331F441FAA1FA9F314
:102DA00035D00E2E3AF0E0E832D091505040E69502
:102DB000001CCAF72BD0FE2F29D0660F771F881F63
:102DC000BB1F261737074807AB07B0E809F0BB0B56
:102DD000802DBF01FF2793585F4F3AF09E3F51056A
:102DE00078F00C9403180C945C185F3FE4F3983E61
:102DF000D4F3869577956795B795F7959F5FC9F753
:102E0000880F911D9695879597F90895E1E0660FD3
:102E1000771F881FBB1F621773078407BA0720F04C
:102E2000621B730B840BBA0BEE1F88F7E0950895B5
:102E30000E941F176894B1110C945C1808950E94A9
:102E4000411888F09F5798F0B92F9927B751B0F0E3
:102E5000E1F0660F771F881F991F1AF0BA95C9F71E
:102E600014C0B13091F00E945B18B1E008950C9449
:102E70005B18672F782F8827B85F39F0B93FCCF3FC
:102E8000869577956795B395D9F73EF4909580959B
:102E9000709561957F4F8F4F9F4F0895E89409C0BB
:102EA00097FB3EF490958095709561957F4F8F4F7D
:102EB0009F4F9923A9F0F92F96E9BB279395F69593
:102EC000879577956795B795F111F8CFFAF4BB0F11
:102ED00011F460FF1BC06F5F7F4F8F4F9F4F16C075
:102EE000882311F096E911C0772321F09EE8872FFF
:102EF000762F05C0662371F096E8862F70E060E0BB
:102F00002AF09A95660F771F881FDAF7880F969533
:102F1000879597F908950E941A1820F019F00E94D9
:102F2000211850F40C9417180C945C18E92F0E9487
:102F3000391888F35523B1F3E7FB62177307840749
:102F40009507A8F189F3E92FFF2788232AF0319705
:102F5000660F771F881FDAF7952F5527442332F025
:102F600091505040220F331F441FD2F7BB27E91B5B
:102F7000F50B621B730B840BB109B1F222F4620FE3
:102F8000731F841FB11D31972AF0660F771F881FAA
:102F9000BB1FEFCF9150504062F041F0882332F0D8
:102FA000660F771F881F91505040C1F793950C947E
:102FB00009188695779567959F5FD9F7F7CF990F91
:102FC0000008550FAA0BE0E8FEEF16161706E807F3
:102FD000F907C0F012161306E407F50798F0621B14
:102FE000730B840B950B39F40A2661F0232B242BE9
:102FF000252B21F408950A2609F4A140A6958FEF08
:10300000811D811D089597F99F6780E870E060E059
:1030100008959F3F31F0915020F4879577956795FB
:10302000B795880F911D9695879597F908959FEF0D
:1030300080EC089500240A9416161706180609064F
:10304000089500240A94121613061406050608951E
:10305000092E0394000C11F4882352F0BB0F40F4A6
:10306000BF2B11F460FF04C06F5F7F4F8F4F9F4FE6
:10307000089557FD9058440F551F59F05F3F71F068
:103080004795880F97FB991F61F09F3F79F08795CF
:103090000895121613061406551FF2CF4695F1DF58
:1030A00008C0161617061806991FF1CF86957105E8
:1030B000610508940895E894BB2766277727CB011C
:1030C00097F908950E9475180C9428180E941A18F0
:1030D00038F00E94211820F0952311F00C94031869
:1030E0000C94171811240C945C180E94391870F372
:1030F000959FC1F3950F50E0551F629FF001729F9D
:10310000BB27F00DB11D639FAA27F00DB11DAA1FAB
:10311000649F6627B00DA11D661F829F2227B00DF8
:10312000A11D621F739FB00DA11D621F839FA00D83
:10313000611D221F749F3327A00D611D231F849FD3
:10314000600D211D822F762F6A2F11249F5750402A
:103150009AF0F1F088234AF0EE0FFF1FBB1F661FA5
:10316000771F881F91505040A9F79E3F510580F06E
:103170000C9403180C945C185F3FE4F3983ED4F36E
:10318000869577956795B795F795E7959F5FC1F712
:10319000FE2B880F911D9695879597F9089581E0EC
:0C31A00090E0F8940C94D418F894FFCF41
:1031AC000800080064C201F401F401F401000000FD
:1031BC00000000803F0000803F0000000000000085
:1031CC0000000080BF000080BF0000000000000075
:1031DC00004202AF01DA0189020B02E901FD010094
:1031EC0000000072034203A20316033A03260317DE
:0231FC000300CE
:00000001FF
