:100000000C9489010C94BA010C94BA010C94BA01B5
:100010000C94BA010C94BA010C94BA010C94BA0174
:100020000C94BA010C94BA010C94BA010C94BA0164
:100030000C94BA010C94BA010C94BA010C94BA0154
:100040000C94BA010C94BA010C94BA010C94BA0144
:100050000C94BA010C94BA010C94BA010C94D90C0A
:100060000C94BA010C94DE030C94B4030C94BA0102
:100070000C94BA010C94BA010C94BA010C94BA0114
:100080000C94BA010C94BA010C94BA010C94BA0104
:100090000C94BA010C94BA010C94BA010C940507A3
:1000A0000C94BA010C94BA010C94BA010C94BA01E4
:1000B0000C94BA010C94BA010C94BA010C94BA01D4
:1000C0000C94BA010C94BA010C94BA010C94BA01C4
:1000D0000C94BA010C94BA010C94BA010C94BA01B4
:1000E0000C94BA01620867086C0876088008F90861
:1000F0008A0892089A08A408AE08B808C708D10868
:10010000F908DB08E508EF08E40BE70BD60BDA0B80
:10011000DE0B1E0CEB0BEF0BF50BF90BFD0B030CC1
:10012000070C0B0C1E0C110C150C190C0C94670809
:100130000C94110C0C94B8080C94C7080C94620829
:100140000C94EB0B0C94AF030C94D1080C94BC01F1
:100150000C94190C0C94DB080C941E0C0C94E70105
:100160000C94E5080C94150C0C94F50B0C94E70B0F
:100170000C944F020C9496020C94EF080C94F60128
:100180000C9422170C94070C0C94DE0B0C94AE0804
:100190000C946C080C9423030C94030C0C9424030F
:1001A0000C94F90B0C9447030C94DA0B0C94FD0B94
:1001B0000C9418020C94F9080C947F030C9480089A
:1001C0000C94D60B0C948A080C94E40B0C940A0241
:1001D0000C944F030C949A080C9476080C94920893
:1001E0000C94EF0B0C94A4080C9433030C940B0C9C
:1001F00000002100240027002A002D0030003300D9
:1002000001010000040107010A010000220025008D
:1002100028002B002E0031003400020100000501EF
:1002200008010B0100000A0B02090C0D0E08070360
:1002300004010000000000000000000000000000B9
:1002400000000000000000000000000000000000AE
:10025000121110000000000000000000000000006B
:10026000000000000000000000000000200023004B
:10027000260029002C002F0032000001000003019D
:100280000601090105050505070508080808020219
:1002900002020A0A08080404040401010101010120
:1002A00001010303030303030303040707070C0C03
:1002B0000C0C0C0C0C0C02020202060606060606CA
:1002C00006060B0B0B0B0B0B0B0B0102102020086F
:1002D00008102040102040800201020108040201A1
:1002E0000102040810204080804020100804020110
:1002F0008004020180402010080402010804020169
:1003000001020408102040800102040810204080EF
:10031000221711241FBECFEFD1E2DEBFCDBF00E018
:100320000CBF12E0A0E0B2E0E2EDF5E300E00BBFAD
:1003300002C007900D92A235B107D9F729E0A2E5D6
:10034000B2E001C01D92A03FB207E1F711E0C9E899
:10035000D1E000E006C021970109802FFE010E9434
:100360000918C838D10780E00807A9F70E94680D6E
:100370000C94E71A0C940000CF92DF92EF92FF9258
:100380000F931F93CF93DF936C017A018B01C0E031
:10039000D0E0CE15DF0589F0D8016D918D01D60131
:1003A000ED91FC910190F081E02DC6011995892B0A
:1003B00011F47E0102C02196ECCFC701DF91CF91ED
:1003C0001F910F91FF90EF90DF90CF900895FC0167
:1003D000538D448D252F30E0842F90E0821B930BAA
:1003E000541710F0CF96089501970895FC01918D50
:1003F000828D981761F0828DDF01A80FB11D5D9687
:100400008C91928D9F5F9F73928F90E008958FEFF4
:100410009FEF0895FC01918D828D981731F0828DA8
:10042000E80FF11D858D90E008958FEF9FEF0895FF
:10043000FC01918D228D892F90E0805C9F4F821B63
:1004400091098F73992708958CE198E00E94180212
:1004500021E0892B09F420E0822F0895FC01848D8E
:10046000DF01A80FB11DA35ABF4F2C91848D90E0DE
:1004700001968F739927848FA689B7892C93A089B9
:10048000B1898C9180648C93938D848D981306C070
:100490000288F389E02D80818F7D80830895EF921B
:1004A000FF920F931F93CF93DF93EC0181E0888F2E
:1004B0009B8D8C8D981305C0E889F989808185FD15
:1004C00024C0F62E0B8D10E00F5F1F4F0F73112706
:1004D000E02E8C8DE8120CC00FB607FCFACFE8892D
:1004E000F989808185FFF5CFCE010E942E02F1CFE0
:1004F0008B8DFE01E80FF11DE35AFF4FF0820B8F49
:10050000EA89FB898081806207C0EE89FF89608368
:10051000E889F98980818064808381E090E0DF91BF
:10052000CF911F910F91FF90EF900895CF93DF939C
:10053000EC01888D8823C9F0EA89FB89808185FDDB
:1005400005C0A889B9898C9186FD0FC00FB607FC3C
:10055000F5CF808185FFF2CFA889B9898C9185FF7D
:10056000EDCFCE010E942E02E7CFDF91CF9108950B
:1005700080E090E0892B21F00E942402811125C0A7
:1005800080E090E0892B41F080E090E0892B21F021
:100590000E94000081111CC080E090E0892B41F096
:1005A00080E090E0892B21F00E940000811113C0AF
:1005B00080E090E0892BA1F080E090E0892B81F031
:1005C0000E94000081110AC008950E940000D8CF47
:1005D0000E940000E1CF0E940000EACF0C940000CE
:1005E000089585ED8093BC008091BC0084FDFCCF14
:1005F0001092F607089540916707262F30E0240FE8
:10060000311D21323105DCF42091F6072430C9F484
:10061000FC0180E090E0861758F430916707219143
:10062000DC01AB5BB84FA30FB11D2C930196F3CF48
:1006300080916707680F6093670780E0089581E005
:10064000089582E008950895E091F8078091F707F2
:10065000E81730F4F0E0E750F84F808190E008951B
:100660008FEF9FEF08959091F8078091F707981703
:1006700050F4E92FF0E0E750F84F208130E09F5F21
:100680009093F80702C02FEF3FEFC90108958091C2
:10069000F70790E02091F807821B91090895CF9207
:1006A000DF92EF92FF920F931F93CF93DF937C0122
:1006B000262F972F8A0180911B08882391F0C62F3F
:1006C000D72F6E01C40ED51ECC15DD0571F06991D2
:1006D000D701ED91FC910190F081E02DC7011995B2
:1006E000F3CF642F822F0E94FB02C801DF91CF91CC
:1006F0001F910F91FF90EF90DF90CF900895CF93CF
:10070000DF931F92CDB7DEB7698320911B082223A8
:10071000D1F020911908203240F021E030E0FC01B6
:100720003383228380E090E015C080911A08E82F7F
:10073000F0E0E055F84F998190838F5F80931A081D
:100740008093190805C061E0CE0101960E94FB026A
:1007500081E090E00F90DF91CF910895089580E0BF
:1007600090E008950E94E21A1F920F920FB60F9226
:1007700011240BB60F922F933F934F935F936F9378
:100780007F938F939F93AF93BF93EF93FF938CE1EE
:1007900098E00E942E02FF91EF91BF91AF919F913F
:1007A0008F917F916F915F914F913F912F910F901A
:1007B0000BBE0F900FBE0F901F9018951F920F92B7
:1007C0000FB60F9211240BB60F922F938F939F9316
:1007D000EF93FF93E0912C08F0912D088081E09138
:1007E0003208F091330882FD12C090818091350863
:1007F0008F5F8F7320913608821751F0E091350892
:10080000F0E0E45EF74F958F8093350801C080815A
:10081000FF91EF919F918F912F910F900BBE0F90B1
:100820000FBE0F901F901895EF920F93CF93DF9309
:10083000EC01862F688349832A830B83EC8261E075
:100840000E94320C61E089810E94320C61E08A8151
:100850000E94320C61E08B810E94320C60E08C813E
:100860000E94320C60E088810E94B50B61E08981B2
:10087000DF91CF910F91EF900C94B50B0F931F93D5
:10088000CF93DF931F92CDB7DEB78C01FC0181813E
:1008900069830E946409698189EB98E00E947F0363
:1008A0000E94B909F801808362E081810E946E098B
:1008B00089EB98E00E94330300E010E0182F89EBE9
:1008C00098E00E943303802B912B0F90DF91CF9102
:1008D0001F910F9108950F931F93CF93DF931F9252
:1008E000CDB7DEB78C01FC01818169830E94640968
:1008F000698189EB98E00E947F030E94B909F801A1
:10090000808361E081810E946E0989EB98E00E94FA
:1009100033030F90DF91CF911F910F9108954F9264
:100920005F926F927F928F929F92AF92BF92CF927F
:10093000DF92EF92FF920F931F93CF93DF936C019F
:100940007B01EA0160E50E946B048F5F880F90E0F5
:100950009983888366E4C6010E946B04082F10E027
:100960000F5F1F4F1D830C83A881B0E020E03FE2A2
:100970004AE350E00E9411186C507E4F8F4F9F4FFA
:10098000E8EE8E2EE3E09E2EA12CB12CA501940161
:100990000E94E71729013A01D8010E941C18769499
:1009A000679457944794640D751D861D971DA50186
:1009B00094010E94E7172A873B874C875D8761E592
:1009C000C6010E943E048C01112702C0000F111FB6
:1009D0009A95E2F70F5F1F4F1F830E83A881B0E047
:1009E00020E03FE24AE350E00E9411186C507E4F35
:1009F0008F4F9F4FA50194010E94E71729013A01EB
:100A0000D8010E9411187694679457944794640D06
:100A1000751D861D971DA50194010E94E7172E875D
:100A20003F87488B598B60E7C6010E946B048F5F3C
:100A3000880F90E09B838A8361E7C6010E943E0491
:100A40009C01992702C0880F991F3A95E2F70196F9
:100A500099878887F7012381222331F02E813F81F6
:100A6000821B930B99878887AA81B0E020E03FE240
:100A70004AE350E00E9411186C507E4F8F4F9F4FF9
:100A800028EEC22E23E0D22EE12CF12CA7019601F4
:100A90000E94E71749015A01B694A7949794879446
:100AA000A885B9850E941118680D791D8A1D9B1DA6
:100AB000A70196010E94E7172A8B3B8B4C8B5D8B1D
:100AC000DF91CF911F910F91FF90EF90DF90CF902A
:100AD000BF90AF909F908F907F906F905F904F905E
:100AE0000895CF93DF93EB0161E00E946B0484FBD8
:100AF000992790F9988383FB992790F99A8382FB31
:100B0000992790F9998386FB992790F99B83982FD1
:100B1000991F9927991F9C83DF91CF9108950F9377
:100B20001F93CF93DF9300D0CDB7DEB78C01FC01CC
:100B300081814B835A8369830E946409698189EBAF
:100B400098E00E947F035A81652F89EB98E00E940C
:100B50007F034B81642F89EB98E00E947F030E9402
:100B6000B909F80180830F900F900F90DF91CF911A
:100B70001F910F9108952F923F924F925F926F9223
:100B80007F928F929F92AF92BF92CF92DF92EF921D
:100B9000FF920F931F93CF93DF93CDB7DEB76B9781
:100BA0000FB6F894DEBF0FBECDBF1C014A015B013A
:100BB000BE01695E7F4F0E947105AE014F5F5F4FBE
:100BC000BE01695E7F4FC1010E948F048F89882317
:100BD00049F08B859C85AD85BE858A5C944FAF4F6F
:100BE000BF4F04C088EE98E0A0E0B0E0298D22233A
:100BF00069F04B855C856D857E854E545D4F6F4FEA
:100C00007F4F440F551F661F771F0BC0288D22236F
:100C100061F04B855C856D857E854C565D4F6F4FD1
:100C20007F4F840F951FA61FB71FCA8CCC2061F081
:100C30004F85588969897A894C565D4F6F4F7F4F30
:100C4000840F951FA61FB71FDB8CDD2009F469C038
:100C50002C013D0126E2420E22E0521E611C711C55
:100C600084149504A604B70408F45EC0AB81B0E018
:100C700020E03FE24AE350E00E9411186C507E4FA2
:100C80008F4F9F4F28EE33E040E050E00E94E7177F
:100C900079018A01A50194012419350946095709EA
:100CA000A8EEB3E00E9411182701380176946794EA
:100CB00057944794640D751D861D971DA8019701D3
:100CC0000E94E7178901CC2021F00F811885020FBF
:100CD000131F01151105C9F00150110920E030E082
:100CE00040E050E0D901C8018827892B8A2B8B2B43
:100CF00039F036952795179507954F5F5F4FF2CFDF
:100D0000542F4427402B512B02C040E050E061E7B4
:100D1000C1010E948F05F10180869186A286B3866B
:100D200004C0DD24D39401C0D12C8D2D6B960FB659
:100D3000F894DEBF0FBECDBFDF91CF911F910F9111
:100D4000FF90EF90DF90CF90BF90AF909F908F90EB
:100D50007F906F905F904F903F902F9008950F93EA
:100D60001F93CF93DF931F921F92CDB7DEB78C01F5
:100D7000FC0181814A8369830E946409698189EB4E
:100D800098E00E947F034A81642F89EB98E00E94DB
:100D90007F030E94B909F80180830F900F90DF91C3
:100DA000CF911F910F910895CF93DF93EC01462FC0
:100DB000416060E00E94AF060E94CD0C7E836D838F
:100DC00063E1CE010E946B04877089F48A819B8164
:100DD000892BB1F30E94CD0C2D813E81621B730BD8
:100DE0008A819B818617970758F780E00BC041E006
:100DF0006BE0CE010E94AF0640E060E0CE010E94B1
:100E0000AF0681E0DF91CF9108951F920F920FB648
:100E10000F9211240BB60F922F933F934F935F9332
:100E20006F937F938F939F93AF93BF93EF93FF93B2
:100E30008091B900887F803609F49CC068F58832BB
:100E400009F45BC090F4803109F454C038F488236D
:100E500009F4F6C0883009F44DC0F6C0883109F4B1
:100E60004CC0803209F45DC0EFC0803409F468C022
:100E700048F4803309F455C0883309F0E5C0809305
:100E8000F407D8C0803509F44FC0883509F45DC037
:100E9000883409F0D9C0D6C0883909F4C7C0A8F48D
:100EA000883709F467C038F4883609F463C080379E
:100EB00009F460C0C9C0883809F4B8C0803909F4A1
:100EC0005FC0803809F0C0C05BC0803B09F486C0B9
:100ED00038F4803A09F466C0883A09F47FC0B4C097
:100EE000803C09F4A7C0883C09F4A4C0883B09F4FD
:100EF0008AC0AAC08091F10710C09091F307809139
:100F0000F207981770F5E091F30781E08E0F809358
:100F1000F307F0E0E053F84F80818093BB0085EC4D
:100F200086C08093F4078EC0E091F30781E08E0FB6
:100F30008093F3078091BB00F0E0E053F84F80838B
:100F40009091F3078091F2076EC0E091F30781E082
:100F50008E0F8093F3078091BB00F0E0E053F84FD1
:100F600080838091F50781116DC081E08093F00747
:100F700084EA61C083E08093F60710928B07CFCF9D
:100F800080918B07803208F051C0E0918B0781E09F
:100F90008E0F80938B078091BB00F0E0E559F84FEE
:100FA0008083BDCF85EC8093BC001092F6078091C2
:100FB0008B07803230F4E0918B07F0E0E559F84F71
:100FC000108260918B0770E0E0916907F0916A07E9
:100FD0008BE697E0199510928B0736C084E08093DA
:100FE000F6071092680710926707E0916507F09185
:100FF0006607199580916707811105C081E080938C
:10100000670710924507E091680781E08E0F809393
:101010006807F0E0EB5BF84F80818093BB00909114
:10102000680780916707981708F479CF85E880935F
:10103000BC000AC085EC8093BC001092F60704C087
:101040001092F4070E94F102FF91EF91BF91AF91CE
:101050009F918F917F916F915F914F913F912F91D0
:101060000F900BBE0F900FBE0F901F9018950F930F
:101070001F93CF93DF93EB0177FF03C0D195C19509
:10108000D109FC010081118161E0802F0E94320CA6
:10109000209709F4B1C0CF3FD10509F4AFC0F801E2
:1010A000FF27EC5DFD4FE4914E2F50E0FA013197A0
:1010B000E231F10508F09DC08827EE58FF4F8F4FB1
:1010C0000C94091884B5806884BDC7BD9FC084B5E1
:1010D000806284BDC8BD9AC0809180008068809382
:1010E0008000D0938900C093880090C080918000D8
:1010F000806280938000D0938B00C0938A0086C06A
:1011000080918000886080938000D0938D00C09390
:101110008C007CC08091B00080688093B000C09348
:10112000B30074C08091B00080628093B000C0931F
:10113000B4006CC080919000806880939000D09340
:101140009900C093980062C0809190008062809363
:101150009000D0939B00C0939A0058C0809190005B
:10116000886080939000D0939D00C0939C004EC0F7
:101170008091A00080688093A0008091A0008F7B68
:101180008093A000D093A900C093A8003FC0809195
:10119000A00080628093A000D093AB00C093AA000F
:1011A00035C08091A00088608093A000D093AD00EE
:1011B000C093AC002BC080912001806880932001F7
:1011C000D0932901C093280121C080912001806221
:1011D00080932001D0932B01C0932A0117C08091E6
:1011E0002001886080932001D0932D01C0932C01B1
:1011F0000DC0C038D10514F460E001C061E0802F5B
:10120000DF91CF911F910F910C94B50BDF91CF918E
:101210001F910F910895CF93DF93EC01611107C0E7
:1012200061E08A810E94B50B60E08C8106C061E0BC
:101230008C810E94B50B60E08A81DF91CF910C9484
:10124000B50BCF93DF93EC01862F688379835B83A3
:101250004A833D832C8361E00E94320C61E08A81E5
:101260000E94320C61E08C81DF91CF910C94320CA2
:101270008F929F92AF92BF92CF92DF92EF92FF92A6
:101280006C010E94CD0C4B015C01AA24BB240D2CE7
:10129000000CEE08FF080E94CD0CDC01CB01881980
:1012A0009909AA09BB098C159D05AE05BF0518F45F
:1012B0000E94B60AF0CFFF90EF90DF90CF90BF90E2
:1012C000AF909F908F90089591E090931B0880932A
:1012D000B10910921A081092190808959091F60712
:1012E0009111FCCF613208F060E291E09093F60733
:1012F0009093F5072FEF2093F4071092F307260F32
:101300002093F2079093F1079091F107880F892BB2
:101310008093F1078091F007813061F41092F0071B
:101320008091F1078093BB008091BC0083FDF8CFD2
:1013300085EC01C085EE8093BC008091F60781307A
:10134000E1F38091F307861710F46091F307A0EDA5
:10135000B7E029EF37E0F9018E2F821B861718F4CA
:101360008D918193F9CF1092F8076093F707862F3C
:101370000895209119089091B109213208F04AC0CE
:101380008091F6078111FCCF32E03093F60731E00F
:101390003093F5073FEF3093F4071092F307209353
:1013A000F207A0EBB7E040ED57E0FA013E2F341B07
:1013B000321718F43D913193F9CF1092F107209133
:1013C000F107990F922B9093F1079091F0079130CC
:1013D00061F41092F0079091F1079093BB00909107
:1013E000BC0093FDF8CF95EC01C095EE9093BC0046
:1013F0009091F6079230E1F39091F4079F3F79F0D6
:101400008091F407803241F08091F407803331F00D
:1014100084E005C081E003C082E001C083E0109257
:101420001A081092190810921B080895CF92DF92A3
:10143000EF92FF920F931F93CF93DF93CDB7DEB759
:101440002E970FB6F894DEBF0FBECDBF6C0188E6B5
:101450000E9464096BE389EB98E00E947F030E947D
:10146000B9096EE088E60E946E0910E09091F707D6
:101470008091F807981769F089EB98E00E94330390
:10148000E1E0F0E0EC0FFD1FE10FF11D80831F5F35
:10149000EDCF0B8510E0102F00278C85082B1195C0
:1014A00001951109ED84F12CFE2CEE248E85E82A9D
:1014B000698570E0762F66278A81682B7195619522
:1014C0007109072E000C880B990B0E94631920E00C
:1014D00030E04AE754E40E94751A20E030E040E032
:1014E00058E30E94751AF6016083718382839383A7
:1014F000B801110F880B990B0E94631920E030E0AE
:101500004AE754E40E94751A20E030E040E058E3D6
:101510000E94751AF6016483758386839783B701E9
:10152000FF0C880B990B0E94631920E030E04AE71A
:1015300054E40E94751A20E030E040E058E30E9435
:10154000751AF6016087718782879387C6012E9688
:101550000FB6F894DEBF0FBECDBFDF91CF911F91C4
:101560000F91FF90EF90DF90CF9008954F925F9290
:101570006F927F928F929F92AF92BF92CF92DF92A3
:10158000EF92FF920F931F93CF93DF93CDB7DEB708
:101590002C970FB6F894DEBF0FBECDBFCE010196DB
:1015A0000E94160A49845A846B847C840E94A80C89
:1015B0004B015C018091A8079091A907A091AA070F
:1015C000B091AB07A5019401281B390B4A0B5B0BAB
:1015D000CA01B9010E94631920E034E244E759E4EA
:1015E0000E94B9186B017C012091AC073091AD07C6
:1015F0004091AE075091AF07C301B2010E94471856
:101600009B01AC01C701B6010E94751A9B01AC0198
:101610006091A4077091A5078091A6079091A707F4
:101620000E94471820E030E044EB53E40E94A919DF
:101630007B018C0120E030E0A9010E94B41887FFF3
:1016400009C020E030E044EB53E4B701C8010E9438
:10165000481802C0B701C8018B019C010093A40780
:101660001093A5072093A6073093A7078092A80799
:101670009092A907A092AA07B092AB072C960FB63A
:10168000F894DEBF0FBECDBFDF91CF911F910F91B8
:10169000FF90EF90DF90CF90BF90AF909F908F9092
:1016A0007F906F905F904F90089560E070E08CE8BD
:1016B00097E00E94370860E070E088E997E00E94B8
:1016C000370860E070E082E997E00E94370860E048
:1016D00070E08EE997E00C9437080F931F9390E029
:1016E000FC01E653FD4F6491FC01EC57FD4FE49182
:1016F000F0E0EE0FFF1FE659FD4F8591949100E257
:101700001EE420E030E0462F0E94230D6115710594
:101710008105910549F0DC01CB010196A11DB11DA8
:10172000BC01CD019F7003C060E070E0CB011F9150
:101730000F910895CF93DF931F921F92CDB7DEB71D
:101740004A8369830E946409698189EB98E00E9459
:101750007F034A81642F89EB98E00E947F030F90FA
:101760000F90DF91CF910C94B909362F90E0FC01D6
:10177000EC5DFD4F4491FC01E653FD4F2491FC01CB
:10178000EC57FD4F9491992309F46BC0442309F45D
:1017900055C050E0FA013197E231F10508F04EC032
:1017A0008827EC57FF4F8F4F0C94091880918000C9
:1017B0008F7707C0809180008F7D03C0809180006B
:1017C000877F809380003AC084B58F7702C084B54C
:1017D0008F7D84BD33C08091B0008F7703C080912E
:1017E000B0008F7D8093B00029C0809190008F77EA
:1017F00007C0809190008F7D03C080919000877F0B
:10180000809390001BC08091A0008F7707C08091CB
:10181000A0008F7D03C08091A000877F8093A000EF
:101820000DC0809120018F7707C0809120018F7DAE
:1018300003C080912001877F80932001E92FF0E091
:10184000EE0FFF1FE65FFD4FA591B4918FB7F8949F
:10185000EC91311103C020952E2301C02E2B2C9327
:101860008FBF0895CF93DF9390E0FC01E653FD4FC7
:101870002491FC01EC57FD4F8491882361F190E0A5
:10188000880F991FFC01E051FE4FC591D491FC01D6
:10189000E65FFD4FA591B491611109C09FB7F8941F
:1018A0008881209582238883EC912E230BC062309F
:1018B00061F49FB7F8943881822F809583238883C1
:1018C000EC912E2B2C939FBF06C08FB7F894E88124
:1018D0002E2B28838FBFDF91CF9108958F929F92F7
:1018E000AF92BF92CF92DF92EF92FF926B017C0199
:1018F0000E94A80C4B015C01C114D104E104F10465
:10190000F1F00E94A80CDC01CB0188199909AA0901
:10191000BB09883E9340A105B10570F321E0C21ACE
:10192000D108E108F10888EE880E83E0981EA11C1A
:10193000B11CC114D104E104F10419F7DDCFFF900B
:10194000EF90DF90CF90BF90AF909F908F900895D1
:101950003FB7F8948091EC099091ED09A091EE09C0
:10196000B091EF0926B5A89B05C02F3F19F001964D
:10197000A11DB11D3FBFBA2FA92F982F8827820F15
:10198000911DA11DB11DBC01CD0142E0660F771F65
:10199000881F991F4A95D1F708952FB7F894609141
:1019A000E8097091E9098091EA099091EB092FBF4C
:1019B00008951F920F920FB60F9211242F933F9309
:1019C0008F939F93AF93BF938091E8099091E9091A
:1019D000A091EA09B091EB093091E70923E0230FC8
:1019E0002D3720F40196A11DB11D05C026E8230F57
:1019F0000296A11DB11D2093E7098093E8099093F9
:101A0000E909A093EA09B093EB098091EC09909160
:101A1000ED09A091EE09B091EF090196A11DB11D4C
:101A20008093EC099093ED09A093EE09B093EF0930
:101A3000BF91AF919F918F913F912F910F900FBECA
:101A40000F901F901895CF92DF92EF92FF920F9315
:101A50001F93E82FF92F05C0015011092109310901
:101A600061F1908196239417B9F305C001501109D3
:101A70002109310911F1908196239413F7CFC12CDC
:101A8000D12CE12CF12C0AC08FEFC81AD80AE80A31
:101A9000F80A0C151D052E053F0579F08081862377
:101AA000841791F36C2D7D2D8E2D9F2D1F910F91FD
:101AB000FF90EF90DF90CF90089560E070E080E0BD
:101AC00090E01F910F91FF90EF90DF90CF900895DD
:101AD000CF93DF93CDB7DEB7C758D1090FB6F894CF
:101AE000DEBF0FBECDBF789484B5826084BD84B55F
:101AF000816084BD85B5826085BD85B5816085BD09
:101B000080916E00816080936E00109281008091C0
:101B10008100826080938100809181008160809348
:101B20008100809180008160809380008091B1006D
:101B300084608093B1008091B00081608093B00098
:101B400080919100826080939100809191008160EA
:101B500080939100809190008160809390008091AB
:101B6000A10082608093A1008091A1008160809398
:101B7000A1008091A00081608093A000809121014C
:101B800082608093210180912101816080932101F5
:101B90008091200181608093200180917A0084608F
:101BA00080937A0080917A00826080937A0080919D
:101BB0007A00816080937A0080917A0080688093B7
:101BC0007A001092C1001092F8071092F707109255
:101BD0001A08109219081092F60781E08093F50711
:101BE0001092F00761E084E10E94B50B61E085E1AD
:101BF0000E94B50B8091B9008E7F8093B9008091CF
:101C0000B9008D7F8093B90088E48093B80085E4A3
:101C10008093BC00E0912C08F0912D0882E0808335
:101C2000E0912808F09129081082E0912A08F091AB
:101C30002B088FEC808310923408E0913008F091EB
:101C4000310886E08083E0912E08F0912F08808192
:101C500080618083E0912E08F0912F088081886058
:101C60008083E0912E08F0912F0880818068808326
:101C7000E0912E08F0912F0880818F7D80832AE6E5
:101C800032E04FEF5FEFBA0180E090E0F901E80F3A
:101C9000F91F40835183628373838C5B9F4F843829
:101CA000A4E09A0799F72C5F3F4FB2E02E3A3B072A
:101CB00059F726E130E047E150E063E070E084E668
:101CC00092E00E94210929E130E048E150E064E01F
:101CD00070E08EE592E00E9421092BE130E04AE1BC
:101CE00050E065E070E088E592E00E9421092DE176
:101CF00030E04CE150E066E070E082E592E00E9466
:101D0000210986E0EEE5F2E0ACE8B7E001900D9243
:101D10008A95E1F786E0E2E5F2E0A2E9B7E001901A
:101D20000D928A95E1F786E0E4E6F2E0A8E9B7E0F3
:101D300001900D928A95E1F786E0E8E5F2E0AEE9E0
:101D4000B7E001900D928A95E1F772E2E72E01E289
:101D500020E24FE16EE18EE099E00E941404E7E298
:101D6000EE2E06E225E244E263E287EF98E00E946D
:101D70001404FCE2EF2E0BE22AE249E268E280EE74
:101D800098E00E941404A1E3EA2E00E32FE24EE261
:101D90006DE289EC98E00E94140487E1EEE0F9E03E
:101DA000DE01119601900D928A95E1F787E1E7EF48
:101DB000F8E0DE01589601900D928A95E1F787E1EF
:101DC000E0EEF8E0DE019F9601900D928A95E1F732
:101DD00087E1E9ECF8E0DE01AA5BBF4F01900D92CC
:101DE0008A95E1F780E090E027E1DC01AB5DB64F3A
:101DF000E1E0F0E0EC0FFD1FE80FF91F322F01903A
:101E00000D923A95E1F747968C35910571F761E0AF
:101E100082E30E94320C61E083E30E94320C61E0B5
:101E200084E30E94320C66EAE62E69E0F62E1CE29C
:101E3000412F6AE8C70101970E94AF06F70110839E
:101E400060E088E0810F0E94320C60E570E080E085
:101E500090E00E946E0C1150FCE0EF1AF10819326C
:101E600039F732E8E32E39E0F32E01E819E06E018C
:101E700023E7C20ED11C46E0942E9C0CAA24A39406
:101E8000B12C69E8C8010E946B04482F416069E8E1
:101E9000C8010E94AF0640E068E8C8010E94AF0692
:101EA00041E060E8C8010E94AF0641E06FEFC80161
:101EB0000E94AF0640E060E0C8010E94AF0661E901
:101EC000C8010E946B04D70116968C9341E060E034
:101ED000C8010E94AF0640E06FEFC8010E94AF0644
:101EE00040E060E8C8010E94AF0660E6C8010E94B9
:101EF0006B04482F426160E6C8010E94AF0640E2D1
:101F000050E064E4C8010E948F054FEF61E0C80112
:101F10000E94AF0641E060E8C8010E94AF0641E0C0
:101F20006FEFC8010E94AF0640E060E0C8010E9468
:101F3000AF0646E06FEFC8010E94AF0663E8C80134
:101F40000E946B04482F446063E8C8010E94AF06FA
:101F500047E06FEFC8010E94AF0641E061E8C801A9
:101F60000E94AF0641E060E8C8010E94AF064BE660
:101F700064E9C8010E94AF0640E063E8C8010E941E
:101F8000AF060E94CD0CF8017683658363E8C80133
:101F90000E946B04811114C0D80112968D919C91FE
:101FA0001397892B99F30E94CD0CF8012581368176
:101FB000621B730B828193818617970738F7F5C2EE
:101FC00041E063E8C8010E94AF0662E9C8010E94CF
:101FD0006B04F82FFF778F2E382E331C3324331CDD
:101FE00040E061E8C8010E94AF0646E06FEFC8011B
:101FF0000E94AF0663E8C8010E946B04482F4B7F24
:1020000063E8C8010E94AF0641E06FEFC8010E947B
:10201000AF0641E060E0C8010E94AF0640E06FEF0C
:10202000C8010E94AF0640E060E8C8010E94AF0608
:10203000D7018C910E94640960EB89EB98E00E94C3
:102040007F030E94B909F801808366E0D7018C9173
:102050000E946E0936012601941441F089EB98E044
:102060000E943303F20181932F01F6CF41E06FEF1D
:10207000C8010E94AF0640E06FE4C8010E94AF06AD
:102080004CE26EE4C8010E94AF0640E06FEFC80169
:102090000E94AF0644EB66EBC8010E94AF063320F6
:1020A00011F04CE001C040E090E080E0282F269540
:1020B00026952695582F5770F601E20FF11D8417CB
:1020C00010F098110AC0950101C0220F5A95EAF745
:1020D000209530812323208309C0208130E002C075
:1020E000359527955A95E2F720FD9F5F8F5F8033E6
:1020F000E9F6D7018C910E94640960EB89EB98E0C6
:102100000E947F03961421F0F30161913F01F6CF05
:102110000E94B909D8018C9341E06FEFC8010E9479
:10212000AF0640E060E0C8010E94AF0640E06FEFFC
:10213000C8010E94AF0640E069E0C8010E94AF06F6
:1021400040E060E1C8010E94AF0640E061E1C801E3
:102150000E94AF0641E064E2C8010E94AF064FEF63
:1021600065E2C8010E94AF0640E065E7C8010E9431
:10217000AF0641E06FEFC8010E94AF064CE26EE48B
:10218000C8010E94AF0640E068E4C8010E94AF06A3
:1021900040E260E3C8010E94AF0640E06FEFC80173
:1021A0000E94AF0649E060E3C8010E94AF0640E02C
:1021B00064E5C8010E94AF0644E061E3C8010E94E3
:1021C000AF0643E062E3C8010E94AF0643E860E463
:1021D000C8010E94AF0645E266E4C8010E94AF064E
:1021E00040E060E6C8010E94AF0640E067E2C80137
:1021F0000E94AF0646E060E5C8010E94AF0640E0DD
:1022000061E5C8010E94AF0646E962E5C8010E9487
:10221000AF0648E066E5C8010E94AF0640E367E507
:10222000C8010E94AF0640E061E6C8010E94AF0607
:1022300040E062E6C8010E94AF0640E064E6C801E3
:102240000E94AF0640E065E6C8010E94AF0640EA82
:1022500066E6C8010E94AF0641E06FEFC8010E9428
:10226000AF0642E362E2C8010E94AF0644E167E4C0
:10227000C8010E94AF064FEF69E4C8010E94AF0693
:1022800040E06AE4C8010E94AF0640E06FEFC80179
:102290000E94AF064AE06AE7C8010E94AF0640E02C
:1022A0006BE7C8010E94AF0641E268E7C8010E94DF
:1022B000AF0641E06FEFC8010E94AF0644E363E25E
:1022C000C8010E94AF0640E062E4C8010E94AF0668
:1022D0004FEF64E4C8010E94AF0646E265E4C8011E
:1022E0000E94AF0645E066E4C8010E94AF0640E4E4
:1022F00060E4C8010E94AF0646E06EE0C8010E949B
:10230000AF064AE160E2C8010E94AF0640E463E420
:10231000C8010E94AF0640E06FEFC8010E94AF06FF
:1023200043E064E3C8010E94AF0644E465E3C801EA
:102330000E94AF0641E06FEFC8010E94AF0644E083
:1023400061E3C8010E94AF0649E06BE4C8010E9446
:10235000AF0645E06CE4C8010E94AF0644E06DE4BE
:10236000C8010E94AF0640E06FEFC8010E94AF06AF
:1023700040E064E4C8010E94AF0640E265E4C801A1
:102380000E94AF0648E067E4C8010E94AF0648E239
:1023900068E4C8010E94AF0640E067E6C8010E94F9
:1023A000AF0644E060E7C8010E94AF0641E061E784
:1023B000C8010E94AF064EEF62E7C8010E94AF0657
:1023C00040E066E7C8010E94AF0640E067E7C80149
:1023D0000E94AF0641E06FEFC8010E94AF0641E0E6
:1023E0006DE0C8010E94AF0640E06FEFC8010E9497
:1023F000AF0641E060E8C8010E94AF0648EF61E027
:10240000C8010E94AF0641E06FEFC8010E94AF060D
:1024100041E06EE8C8010E94AF0641E060E0C801FB
:102420000E94AF0640E06FEFC8010E94AF0640E097
:1024300060E8C8010E94AF0644E06AE0C8010E945B
:10244000AF0664E8C8010E946B04482F4F7E64E821
:10245000C8010E94AF0641E06BE0C8010E94AF06D0
:10246000BE0167587F4FC8010E947105AE01435AF3
:102470005F4FBE0167587F4FC8010E948F04EA96E4
:102480008FADEA97882359F0AB968CAD9DADAEAD7C
:10249000BFADAB978C57924FAF4FBF4F04C086E391
:1024A0009BE0A0E0B0E0EC962FADEC97222379F012
:1024B000AB964CAD5DAD6EAD7FADAB974E545D4F01
:1024C0006F4F7F4F440F551F661F771F0FC0EB964E
:1024D0002FADEB97222371F0AB964CAD5DAD6EAD99
:1024E0007FADAB974C565D4F6F4F7F4F840F951F5D
:1024F000A61FB71FED962FADED97222371F0AF9673
:102500004CAD5DAD6EAD7FADAF974C565D4F6F4F2F
:102510007F4F840F951FA61FB71FEE962FADEE9726
:10252000222371F0E3964CAD5DAD6EAD7FADE397C8
:102530004A5D5D4F6F4F7F4F840F951FA61FB71FDA
:10254000F80180879187A287B38748EE61E0C801D0
:102550000E94AF06D80118964D915D916D917C91C6
:102560001B974032BEE45B076105710518F0C80196
:102570000E94BB0541E061E0C8010E94AF0660E433
:10258000C8010E94D406882381F042E061E0C801BE
:102590000E94AF0660E0C8010E94D406882329F09B
:1025A00048EE61E0C8010E94AF06045F1F4FECE0F7
:1025B000EE0EF11CF2EBEF16F9E0FF0609F061CC2C
:1025C00001E819E084EFE82EFF24F394D801139674
:1025D000FC92EE92129740E45DE063E070E0C80187
:1025E0000E94BB05045F1F4FB9E0013B1B0771F759
:1025F00046E06DE188E60E949A0B46E06AE188E6D3
:102600000E949A0B40E16BE188E60E949A0B40E041
:102610006CE188E60E949A0B42E067E388E60E943C
:102620009A0B46E16AE08CE00E949A0B0E94A80C8B
:102630006093A8077093A9078093AA079093AB07AC
:1026400004E110E0CE01835A9F4F0E94160AA9961A
:102650002CAD3DAD4EAD5FADA9976091AC077091CB
:10266000AD078091AE079091AF070E944818609324
:10267000AC077093AD078093AE079093AF0762E30A
:1026800070E080E090E00E946E0C01501109D1F6DC
:1026900020E030E040EA51E46091AC077091AD0772
:1026A0008091AE079091AF070E94B9186093AC0774
:1026B0007093AD078093AE079093AF07EDE1F7E01D
:1026C000CE57DF4FF983E883C258D0402DE337E07F
:1026D000CC57DF4F39832883C458D04067E2462E59
:1026E00069E0562E75E2E72E79E0F72EA8E2AA2ED1
:1026F000A9E0BA2EB9E22B2EB9E03B2E15E2C12E8D
:1027000017E0D12E25EC38E0C058DF4F39832883FD
:10271000C058D0402DE337E0CA57DF4F39832883B4
:10272000C658D040C258DF4FF983E883CE57D04017
:10273000812C912C01E819E041E060E8C8010E9479
:10274000AF0641E06FEFC8010E94AF0640E060E0D5
:10275000C8010E94AF06C4018F57964F3C01DC01AF
:1027600017964C9161E9C8010E94AF0641E060E014
:10277000C8010E94AF0640E06FEFC8010E94AF069B
:1027800040E060E8C8010E94AF0641E060E0C80197
:102790000E94AF060E94CD0CF8017683658360E04D
:1027A000C8010E946B0480FF17C0D80112968D915A
:1027B0009C911397892B99F30E94CD0CF8012581E8
:1027C0003681621B730B828193818617970738F7D6
:1027D00081E0F301848333C30E94CD0CD8011696A7
:1027E0007C936E93159763E1C8010E946B04877018
:1027F000D1F4F80182819381892BA9F30E94CD0C39
:10280000D80115962D913C911697621B730B129669
:102810008D919C9113978617970728F781E0D30134
:1028200014968C930CC36EE1C8010E943E043C01D7
:1028300041E06BE0C8010E94AF06C301CA57DF4FF9
:10284000E881F981C658D04081939193CA57DF4FF0
:10285000F983E883C658D040F89460E0D2018C91A7
:102860000E94B50B60E0F50180810E94B50BD1019B
:102870008C910E946D0BF701728B618B61E0D2012C
:102880008C910E94B50B61E0F50180810E94B50B2F
:10289000D1018C910E946D0BF701768B658B60E006
:1028A000D2018C910E94B50B61E0F50180810E94FC
:1028B000B50BD1018C910E946D0BF701748B638B6A
:1028C0007894258936898389948941895289F601CA
:1028D000518340833383228395838483C058DF4FA1
:1028E000A881B981C058D0408D91C058DF4FB983BD
:1028F000A883C058D040863308F0865390917B005F
:10290000282F2870977F922B90937B00877080648C
:1029100080937C0080917A00806480937A0080911B
:102920007A0086FDFCCF809178002091790090E0BC
:10293000922BC258DF4FE881F981CE57D040819366
:102940009193C258DF4FF983E883CE57D040045F9C
:102950001F4FFCE08F0E911C27E1420E511C37E106
:10296000E30EF11C87E1A80EB11C97E1290E311C82
:10297000A6E0CA0ED11CB0E38B16910409F0DCCEA0
:1029800010910402409002025090030280900002D5
:1029900090900102A5E0B2E0EDE1F7E040E0219186
:1029A00031918D919D918217930708F44F5F27E035
:1029B000E532F207A1F74230C0F021E1249DC001C9
:1029C000259D900D1124880E991EF401EE0FFF1F16
:1029D000EE0FFF1FE659FD4F8FE097E2A0E0B0E059
:1029E00080839183A283B383C1C081E1849DF00180
:1029F000859DF00D1124E80DF91DEE0FFF1FEE0F60
:102A0000FF1FE659FD4F80819181A281B3818F3FE5
:102A10002FEF9207A207B20711F580911A07909144
:102A20001B07092E000CAA0BBB0B80839183A2838A
:102A3000B3830DE012E0CE0101961C01ADE3B7E0D7
:102A4000C258DF4FB983A883CE57D040092C000C61
:102A5000AA08BB08052C000C6608770805C09093EF
:102A60001B0780931A07E5CFC258DF4FE881F98131
:102A7000CE57D04081919191C258DF4FF983E883BE
:102A8000CE57D0408739910588F1C501B4010E9425
:102A90006319D8012D913D914D915C910E94481888
:102AA0000E942B196B017C01C301B2010E946319C2
:102AB000F80124813581468157810E9448180E947F
:102AC0002B1921E1269FF001279FF00D1124CE0E36
:102AD000DF1EC601880F991F880F991FFC01E65958
:102AE000FD4F80819181A281B38104C08EEF9FEF61
:102AF000AFEFBFEFF10180839183A283B383085FBF
:102B00001F4FF4E02F0E311C22E00D32120709F0A6
:102B1000ABCF80911A0790911B07AC01415051092E
:102B2000052E000C660B770B20E0122F1370E1E0EE
:102B3000F0E0EC0FFD1F34E0139FE00DF11D1124B8
:102B4000C080D180E280F380AFEFCA16DA06EA06D1
:102B5000FA0661F0243038F0009739F0C416D50633
:102B6000E606F70619F02F5FE0CF1FEF10931C0762
:102B7000E12E012E000CFF08BAE51B029001112482
:102B8000C90164EB70E00E94D317892B71F501E055
:102B90002B3531050CF400E0602F8CE897E00E94A3
:102BA0000B09602F88E997E00E940B09602F82E9EA
:102BB00097E00E940B09602F8EE997E00E940B09B5
:102BC00064E470E08CE897E00E94370862E370E00C
:102BD00088E997E00E94370865E370E082E997E0B2
:102BE0000E94370865E370E030C0DD24D394243BB5
:102BF00031050CF0D12C01E00D25602F8CE897E019
:102C00000E940B096D2D88E997E00E940B096D2D3C
:102C100082E997E00E940B09602F8EE997E00E94FD
:102C20000B0966E670E08CE897E00E94370865E5DE
:102C300070E088E997E00E94370860E570E082E97B
:102C400097E00E9437086AE570E08EE997E00E94FD
:102C5000370810FF03C084E195E002C082E593E0ED
:102C60000E9438090E94550B8CE291E00E943809BD
:102C70000E94B60A6091A4077091A5078091A607EB
:102C80009091A7070E9432198B01DD24D394653BF4
:102C9000710508F4D12C6D2D8CE897E00E940B098A
:102CA0006D2D88E997E00E940B0981E0D8266D2DF3
:102CB00082E997E00E940B096D2D8EE997E00E9452
:102CC0000B0964E470E08CE897E00E94370862E347
:102CD00070E088E997E00E94370865E370E082E9D8
:102CE00097E00E94370865E370E08EE997E00E9464
:102CF0003708045011090136114070F40E94B60AD9
:102D00006091A4077091A5078091A6079091A707ED
:102D10000E9432198B01EDCF0E94550B6091000289
:102D200070910102072E000C880B990B0E94631909
:102D3000870123E0000F111F2A95E1F7035F1D4F64
:102D4000D8012D913D914D915C910E9448180E94AF
:102D50002B1970930102609300026091020270913E
:102D60000302072E000C880B990B0E946319F801CF
:102D700024813581468157810E9448180E942B1971
:102D8000709303026093020280911A0790911B07CF
:102D9000019690931B0780931A07109216071092C2
:102DA000170710921807109219074EE057E086E0B7
:102DB00097E020E030E066E0CC57DF4FA881B98192
:102DC000C458D040ED91FD91CC57DF4FB983A88313
:102DD000C458D040DA01ED93FD93AD01CE57DF4FDB
:102DE000A881B981C258D040ED91FD91CE57DF4FF7
:102DF000B983A883C258D040DC01ED93FD93CD0187
:102E0000D901A251B94FF901EB5DF84F762F01902E
:102E10000D927A95E1F72A5F3F4F2831310561F62F
:102E2000C701029664E070E00E94D3178093040209
:102E300088EE93E00E9438090E94B8023FCC8FEFE1
:102E40009FEFFCCCECE1F8E01382128288EE93E075
:102E5000A0E0B0E084839583A683B78321E332E0CA
:102E60003183208325EC30E03587248724EC30E063
:102E70003787268720EC30E0318B208B21EC30E047
:102E8000338B228B22EC30E0358B248B26EC30E028
:102E9000378B268B118E128E138E148EE9EBF8E091
:102EA0001382128284839583A683B78383E492E09E
:102EB00091838083EBEDF9E089E2818313821282B2
:102EC0001482EFECF9E08183138212821482E3EC26
:102ED000F9E08183138212821482E7EBF9E08183A7
:102EE0001382128214828CE0EBEDF9E0A1E8B9E0E4
:102EF00001900D928A95E1F78CE0EFECF9E0ADE8F6
:102F0000B9E001900D928A95E1F78CE0E3ECF9E0ED
:102F1000A9E9B9E001900D928A95E1F78CE0E7EB21
:102F2000F9E0A5EAB9E001900D928A95E1F787E111
:102F3000EEE0F9E0A5E2B9E001900D928A95E1F7A3
:102F400087E1E7EFF8E0ACE3B9E001900D928A95F4
:102F5000E1F787E1E0EEF8E0A3E5B9E001900D923A
:102F60008A95E1F787E1E9ECF8E0AAE6B9E001909B
:102F70000D928A95E1F73CE03093B6092DE020935D
:102F8000B5099EE09093B4098FE08093B309E5EC16
:102F9000F8E0308321839283838387E08093B209B2
:102FA00061E00C94320C97FB072E16F4009407D0C6
:102FB00077FD09D00E94241807FC05D03EF49095B7
:102FC00081959F4F0895709561957F4F0895A1E277
:102FD0001A2EAA1BBB1BFD010DC0AA1FBB1FEE1F93
:102FE000FF1FA217B307E407F50720F0A21BB30BDE
:102FF000E40BF50B661F771F881F991F1A9469F75A
:1030000060957095809590959B01AC01BD01CF01B5
:103010000895EE0FFF1F881F8BBF0790F691E02DDC
:1030200019940E943818A59F900DB49F900DA49FED
:10303000800D911D11240895B7FF0C9411180E9462
:103040001118821B930B0895AA1BBB1B51E107C0EB
:10305000AA1FBB1FA617B70710F0A61BB70B881F28
:10306000991F5A95A9F780959095BC01CD010895B7
:10307000A29FB001B39FC001A39F700D811D1124B9
:10308000911DB29F700D811D1124911D08955058FE
:10309000BB27AA270E945F180C943B1A0E942D1A86
:1030A00038F00E94341A20F039F49F3F19F426F4C6
:1030B0000C942A1A0EF4E095E7FB0C94161AE92FEB
:1030C0000E944C1A58F3BA176207730784079507D2
:1030D00020F079F4A6F50C946E1A0EF4E0950B2E00
:1030E000BA2FA02D0B01B90190010C01CA01A0015A
:1030F0001124FF27591B99F0593F50F4503E68F1B5
:103100001A16F040A22F232F342F4427585FF3CFF5
:10311000469537952795A795F0405395C9F77EF4C6
:103120001F16BA0B620B730B840BBAF09150A1F00F
:10313000FF0FBB1F661F771F881FC2F70EC0BA0F95
:10314000621F731F841F48F4879577956795B7951D
:10315000F7959E3F08F0B0CF9395880F08F0992718
:10316000EE0F9795879508950E94F21908F481E073
:1031700008950E94CD180C943B1A0E94341A58F0FE
:103180000E942D1A40F029F45F3F29F00C94161A82
:1031900051110C946F1A0C942A1A0E944C1A68F35D
:1031A0009923B1F3552391F3951B550BBB27AA2700
:1031B00062177307840738F09F5F5F4F220F331F3A
:1031C000441FAA1FA9F335D00E2E3AF0E0E832D002
:1031D00091505040E695001CCAF72BD0FE2F29D005
:1031E000660F771F881FBB1F261737074807AB07D7
:1031F000B0E809F0BB0B802DBF01FF2793585F4F4C
:103200003AF09E3F510578F00C94161A0C946F1A00
:103210005F3FE4F3983ED4F3869577956795B7952D
:10322000F7959F5FC9F7880F911D9695879597F938
:103230000895E1E0660F771F881FBB1F62177307B1
:103240008407BA0720F0621B730B840BBA0BEE1FC6
:1032500088F7E09508950E9432196894B1110C9492
:103260006F1A08950E94541A88F09F5798F0B92F4A
:103270009927B751B0F0E1F0660F771F881F991FAB
:103280001AF0BA95C9F714C0B13091F00E946E1AC5
:10329000B1E008950C946E1A672F782F8827B85FD5
:1032A00039F0B93FCCF3869577956795B395D9F703
:1032B0003EF490958095709561957F4F8F4F9F4F0D
:1032C0000895E89409C097FB3EF490958095709519
:1032D00061957F4F8F4F9F4F9923A9F0F92F96E962
:1032E000BB279395F695879577956795B795F111D7
:1032F000F8CFFAF4BB0F11F460FF1BC06F5F7F4F74
:103300008F4F9F4F16C0882311F096E911C0772385
:1033100021F09EE8872F762F05C0662371F096E88E
:10332000862F70E060E02AF09A95660F771F881F5D
:10333000DAF7880F9695879597F908950E942D1AC8
:1033400020F019F00E94341A50F40C942A1A0C94AC
:103350006F1AE92F0E944C1A88F35523B1F3E7FB4B
:103360006217730784079507A8F189F3E92FFF27F0
:1033700088232AF03197660F771F881FDAF7952F79
:103380005527442332F091505040220F331F441FE1
:10339000D2F7BB27E91BF50B621B730B840BB1093A
:1033A000B1F222F4620F731F841FB11D31972AF00E
:1033B000660F771F881FBB1FEFCF9150504062F000
:1033C00041F0882332F0660F771F881F91505040DC
:1033D000C1F793950C941C1A8695779567959F5F16
:1033E000D9F7F7CF990F0008550FAA0BE0E8FEEFC9
:1033F00016161706E807F907C0F012161306E407B9
:10340000F50798F0621B730B840B950B39F40A26B1
:1034100061F0232B242B252B21F408950A2609F48F
:10342000A140A6958FEF811D811D089597F99F6793
:1034300080E870E060E008959F3F31F0915020F403
:10344000879577956795B795880F911D9695879580
:1034500097F908959FEF80EC089500240A941616BA
:10346000170618060906089500240A941216130672
:10347000140605060895092E0394000C11F4882300
:1034800052F0BB0F40F4BF2B11F460FF04C06F5F1C
:103490007F4F8F4F9F4F089557FD9058440F551FF2
:1034A00059F05F3F71F04795880F97FB991F61F0C6
:1034B0009F3F79F087950895121613061406551F3D
:1034C000F2CF4695F1DF08C0161617061806991FA9
:1034D000F1CF86957105610508940895E894BB279E
:1034E00066277727CB0197F908950E94881A0C94D4
:1034F0003B1A0E942D1A38F00E94341A20F09523AE
:1035000011F00C94161A0C942A1A11240C946F1AA8
:103510000E944C1A70F3959FC1F3950F50E0551F10
:10352000629FF001729FBB27F00DB11D639FAA2718
:10353000F00DB11DAA1F649F6627B00DA11D661F67
:10354000829F2227B00DA11D621F739FB00DA11D88
:10355000621F839FA00D611D221F749F3327A00D42
:10356000611D231F849F600D211D822F762F6A2FDE
:1035700011249F5750409AF0F1F088234AF0EE0F43
:10358000FF1FBB1F661F771F881F91505040A9F770
:103590009E3F510580F00C94161A0C946F1A5F3FF1
:1035A000E4F3983ED4F3869577956795B795F795AC
:1035B000E7959F5FC1F7FE2B880F911D9695879524
:1035C00097F9089581E090E0F8940C94E71AF89444
:0235D000FFCF2B
:1035D2000800080064C201F401F401F401000000D3
:1035E200000000803F0000803F000000000000005B
:1035F20000000080BF000080BF000000000000004B
:10360200004F02BC01E70196021802F6010A02000D
:103612000000007F034F03AF032303470333032458
:023622000300A3
:00000001FF
