:100000000C94BA010C94EB010C94EB010C94EB01F1
:100010000C94EB010C94EB010C94EB010C94EB01B0
:100020000C94EB010C94EB010C94EB010C94EB01A0
:100030000C94EB010C94EB010C94EB010C94EB0190
:100040000C94EB010C94EB010C94EB010C94EB0180
:100050000C94EB010C94EB010C94EB010C94D20585
:100060000C94EB010C94A6060C947C060C94EB010A
:100070000C94EB010C94EB010C94EB010C94EB0150
:100080000C94EB010C94EB010C94EB010C94EB0140
:100090000C9446060C941C060C94EB010C94EB019A
:1000A0000C94EB010C94EB010C94EB010C94EB0120
:1000B0000C94EB010C94EB010C94EB010C94EB0110
:1000C0000C94EB010C94EB010C94EB010C94EB0100
:1000D0000C94EB010C94EB010C94EB010C94EB01F0
:1000E0000C94EB015B025E024D0251025502950237
:1000F000620266026C02700274027A027E0282025E
:10010000950288028C0290020C9488020C94510291
:100110000C9462020C94DC060C9482020C94AA04E7
:100120000C9474020C94D7030C9455020C94660240
:100130000C949A030C94C2090C946C020C949002D7
:100140000C945B020C945D040C94C8030C945E0246
:100150000C947A020C9495020C94EB030C948C0290
:100160000C94F9030C944D020C9470020C947E02D2
:1001700000407A10F35A00A0724E18090010A5D45E
:10018000E80000E87648170000E40B54020000CABB
:100190009A3B000000E1F505000080969800000001
:1001A00040420F000000A086010000001027000060
:1001B0000000E803000000006400000000000A00E6
:1001C000000000000100000000002C76D888DC67E9
:1001D0004F0823DFC1DFAE59E1B1B796E5E3E45341
:1001E000C63AE651997696E8E6C28426EB898C9B5E
:1001F00062ED407C6FFCEFBC9C9F40F2BAA56FA5FE
:10020000F490055A2AF75C936B6CF9676DC11BFC7F
:10021000E0E40D47FEF520E6B500D0ED902E03009A
:10022000943577050080841E080000204E0A0000E7
:1002300000C80C333333330F986E12831141EF8DA6
:100240002114893BE65516CFFEE6DB18D1844B38E6
:100250001BF77C1D901DA4BBE424203284725E2217
:100260008100C9F124ECA1E53D2700000A0B020939
:100270000C0D0E0807030401000000000000000040
:10028000000000000000000000000000000000006E
:10029000000000000000121110000000000000002B
:1002A000000000000000000000000000000000004E
:1002B00000002200250028002B002E003100340011
:1002C00002010000050108010B01000021002400CB
:1002D00027002A002D003000330001010000040136
:1002E00007010A01050505050705080808080202B7
:1002F00002020A0A080804040404010101010101C0
:1003000001010303030303030303040707070C0CA2
:100310000C0C0C0C0C0C0202020206060606060669
:1003200006060B0B0B0B0B0B0B0B0102102020080E
:100330000810204010204080020102010804020140
:1003400001020408102040808040201008040201AF
:100350008004020180402010080402010804020108
:10036000010204081020408001020408102040808F
:10037000DC06C20911241FBECFEFD1E2DEBFCDBF24
:1003800000E00CBF23E0ACE1B2E001C01D92AF364B
:10039000B207E1F712E0A0E0B2E0EEE3FFE100E037
:1003A0000BBF02C007900D92AC31B107D9F711E035
:1003B000C9EBD1E000E006C021970109802FFE01C2
:1003C0000E946A0DC83BD10780E00807A9F70E9488
:1003D0003D070C948D0F0C940000FC01A089B1899D
:1003E00082E08C93A485B5851C92A685B78580E1B3
:1003F0008C93108EA489B58986E08C93A289B389E9
:100400008C9180618C93A289B3898C9188608C9344
:10041000A289B3898C9180688C930288F389E02D3E
:1004200080818F7D80830895EDE2F3E02491E7EEF3
:10043000F2E08491882399F090E0880F991FFC01E5
:10044000E653FD4FA591B491FC01E055FD4F859118
:1004500094918FB7F894EC91E22BEC938FBF0895B1
:10046000382FEDE6F2E04491EDE2F3E02491E7EE7F
:10047000F2E09491992309F46CC0442309F455C027
:1004800050E0FA013197E231F10508F04EC08827BB
:10049000EE58FF4F8F4F0C946A0D809180008F773C
:1004A00007C0809180008F7D03C080918000877F8E
:1004B000809380003AC084B58F7702C084B58F7D69
:1004C00084BD33C08091B0008F7703C08091B000AD
:1004D0008F7D8093B00029C0809190008F7707C0F6
:1004E000809190008F7D03C080919000877F8093E2
:1004F00090001BC08091A0008F7707C08091A00062
:100500008F7D03C08091A000877F8093A0000DC0E5
:10051000809120018F7707C0809120018F7D03C0DB
:1005200080912001877F80932001E92FF0E0EE0F7A
:10053000FF1FE055FD4FA591B4919FB7F89431117D
:1005400004C08C912095282302C0EC912E2B2C9373
:100550009FBF08950F931F93CF93DF93CDB7DEB75F
:1005600027970FB6F894DEBF0FBECDBF182F1D82A0
:100570001C821F8205EA09838A8380915F03909120
:100580006003DC01ED91FC910280F381E02D42E0FB
:1005900050E0BE016F5F7F4F199517FF35C08F8107
:1005A000082710271F831E8280915F0390916003AC
:1005B000DC01ED91FC910280F381E02D41E050E0FF
:1005C000BE016A5F7F4F199580915F039091600330
:1005D0004E8150E0DC01ED91FC910280F381E02D31
:1005E000BE016C5F7F4F199580915F03909160030E
:1005F000DC01ED91FC910280F381E02D41E050E0BF
:10060000BE01695F7F4F199560E070E0CB012796CE
:100610000FB6F894DEBF0FBECDBFDF91CF911F9113
:100620000F9108953FB7F894809121029091220292
:10063000A0912302B091240226B5A89B05C02F3FAC
:1006400019F00196A11DB11D3FBFBA2FA92F982FF8
:100650008827820F911DA11DB11DBC01CD0142E073
:10066000660F771F881F991F4A95D1F708952FB7F6
:10067000F89460911D0270911E0280911F0290916A
:1006800020022FBF08958F929F92AF92BF92CF9278
:10069000DF92EF92FF920F931F93CF938C014A0149
:1006A0005B010E9437036B017C01C0E00E943703AD
:1006B000DC01CB018C199D09AE09BF09881699068A
:1006C000AA06BB0638F180915F0390916003DC01BC
:1006D000ED91FC910284F385E02D199597FDE6CF0D
:1006E000CC2319F0C13029F007C0853A9105F1F605
:1006F00003C08A359105C9F691E09C0FF801EC0F13
:10070000F11D8083973011F0C92FD0CF60E070E0E9
:10071000CB0104C062E070E880E090E8CF911F91C7
:100720000F91FF90EF90DF90CF90BF90AF909F9090
:100730008F900895CF92DF92EF92FF920F931F93C5
:10074000CF93DF936C017A018B01C0E0D0E0CE152E
:10075000DF0581F0D8016D918D01D601ED91FC91FD
:100760000190F081E02DC6011995892B11F0219699
:10077000EECF7E01C701DF91CF911F910F91FF90C6
:10078000EF90DF90CF900895089580E090E0089575
:10079000FC01538D448D252F30E0842F90E0821B87
:1007A000930B541710F0CF96089501970895FC010C
:1007B000918D828D981761F0828DDF01A80FB11D98
:1007C0005D968C91928D9F5F9F73928F90E00895BC
:1007D0008FEF9FEF0895FC01918D828D981731F076
:1007E000828DE80FF11D858D90E008958FEF9FEFCA
:1007F0000895FC01918D228D892F90E0805C9F4FA0
:10080000821B91098F739927089585E292E00E94D7
:10081000F90321E0892B09F420E0822F089582EC6E
:1008200092E00E94F90321E0892B09F420E0822F55
:100830000895CF93DF93EC01E881F9810680F78179
:10084000E02D1995EA89FB8980818F7E8083EA8972
:10085000FB898081877F8083EA89FB8980818F770C
:100860008083EA89FB8980818F7D80838A8D898F4F
:10087000DF91CF910895FC01848DDF01A80FB11D98
:10088000A35ABF4F2C91848D90E001968F739927C6
:10089000848FA689B7892C93A089B1898C918370A4
:1008A00080648C93938D848D981306C00288F3899D
:1008B000E02D80818F7D80830895EF92FF920F93CA
:1008C0001F93CF93DF93EC0181E0888F9B8D8C8DFC
:1008D000981305C0E889F989808185FD26C0F62E28
:1008E0000B8D10E00F5F1F4F0F731127E02E8C8DC3
:1008F000E8120CC00FB607FCFACFE889F9898081AD
:1009000085FFF5CFCE010E943B04F1CF8B8DFE0118
:10091000E80FF11DE35AFF4FF0829FB7F8940B8F59
:10092000EA89FB89808180620AC09FB7F894EE89CA
:10093000FF896083E889F98980818370806480837E
:100940009FBF81E090E0DF91CF911F910F91FF90C9
:10095000EF900895CF93DF93EC01888D8823C9F041
:10096000EA89FB89808185FD05C0A889B9898C91B8
:1009700086FD0FC00FB607FCF5CF808185FFF2CF53
:10098000A889B9898C9185FFEDCFCE010E943B04E7
:10099000E7CFDF91CF91089580E090E0892B21F09F
:1009A0000E940F04811121C080E090E0892B21F08A
:1009B0000E94050481111CC080E090E0892B41F069
:1009C00080E090E0892B21F00E940000811113C08B
:1009D00080E090E0892BA1F080E090E0892B81F00D
:1009E0000E94000081110AC008950E940000DCCF1F
:1009F0000E940000E1CF0E940000EACF0C940000AA
:100A00000895CF93DF93EC0188819981009711F0CD
:100A10000E940A0E198218821D821C821B821A8271
:100A2000DF91CF9108950E94780F0F931F93CF937A
:100A3000DF93EC0188819981009729F02A813B811D
:100A40002617370788F48B016F5F7F4F0E94930E44
:100A5000009761F0998388831B830A832C813D81F1
:100A6000232B11F4FC01108281E001C080E0DF91B2
:100A7000CF911F910F910895EF92FF920F931F93C3
:100A8000CF93DF93EC01FB0104811581E080F180BD
:100A9000E114F104C9F001151105C9F08C819D81A3
:100AA000080F191FB801CE010E941505882361F0B7
:100AB000288139818C819D81B701820F931F0E940B
:100AC000860F1D830C8303C0CE010E940105CE0159
:100AD000DF91CF911F910F91FF90EF900895EF92CA
:100AE000FF920F931F93CF93DF931F921F92CDB767
:100AF000DEB78C018CE289831A82F801E480F580EC
:100B0000FFEFEF1AFF0AB701C8010E9415058823FD
:100B100081F0F8012081318184819581BE016F5F70
:100B20007F4F820F931F0E94860FF801F582E482A7
:100B300003C0C8010E940105C8010F900F90DF910A
:100B4000CF911F910F91FF90EF900895EF92FF9238
:100B50000F931F93CF93DF938C017B016115710578
:100B600069F0FB0101900020E9F73197EF01C61B06
:100B7000D70BBE010E941505811104C0C8010E9457
:100B8000010508C0F801D583C483B7018081918134
:100B90000E94860FC801DF91CF911F910F91FF90A6
:100BA000EF9008951F920F920FB60F9211242F937A
:100BB0003F938F939F93AF93BF9380911D0290912A
:100BC0001E02A0911F02B091200230911C0223E06E
:100BD000230F2D3720F40196A11DB11D05C026E875
:100BE000230F0296A11DB11D20931C0280931D02AC
:100BF00090931E02A0931F02B093200280912102C5
:100C000090912202A0912302B09124020196A11D8D
:100C1000B11D8093210290932202A0932302B093EE
:100C20002402BF91AF919F918F913F912F910F908F
:100C30000FBE0F901F9018951F920F920FB60F9234
:100C400011240BB60F922F933F934F935F936F93A3
:100C50007F938F939F93AF93BF93EF93FF9385E21F
:100C600092E00E943B04FF91EF91BF91AF919F9161
:100C70008F917F916F915F914F913F912F910F9045
:100C80000BBE0F900FBE0F901F9018951F920F92E2
:100C90000FB60F9211240BB60F922F938F939F9341
:100CA000EF93FF93E0913502F09136028081E0915D
:100CB0003B02F0913C0282FD12C0908180913E0285
:100CC0008F5F8F7320913F02821751F0E0913E02B7
:100CD000F0E0EB5DFD4F958F80933E0201C0808177
:100CE000FF91EF919F918F912F910F900BBE0F90DD
:100CF0000FBE0F901F9018951F920F920FB60F9274
:100D000011240BB60F922F933F934F935F936F93E2
:100D10007F938F939F93AF93BF93EF93FF9382EC57
:100D200092E00E943B04FF91EF91BF91AF919F91A0
:100D30008F917F916F915F914F913F912F910F9084
:100D40000BBE0F900FBE0F901F9018951F920F9221
:100D50000FB60F9211240BB60F922F938F939F9380
:100D6000EF93FF93E091D202F091D3028081E09162
:100D7000D802F091D90282FD12C090818091DB02ED
:100D80008F5F8F732091DC02821751F0E091DB02BC
:100D9000F0E0EE53FD4F958F8093DB0201C0808120
:100DA000FF91EF919F918F912F910F900BBE0F901C
:100DB0000FBE0F901F901895E5E2F2E013821282A9
:100DC00048EE53E060E070E04483558366837783A8
:100DD0008AE092E0918380832DEC30E03587248790
:100DE0002CEC30E03787268728EC30E0318B208BE5
:100DF00029EC30E0338B228B2AEC30E0358B248BCE
:100E00002EEC30E0378B268B118E128E138E148EC3
:100E1000E2ECF2E013821282448355836683778387
:100E20009183808385EC90E09587848784EC90E0C3
:100E30009787868780EC90E0918B808B81EC90E0A7
:100E4000938B828B82EC90E0958B848B86EC90E088
:100E5000978B868B118E128E138E148EEFE5F3E036
:100E600011821082128213821482158216821782D6
:100E700010861186128613860895CF93DF93CDB71F
:100E8000DEB7EA970FB6F894DEBF0FBECDBF7894F9
:100E900084B5826084BD84B5816084BD85B582607F
:100EA00085BD85B5816085BD80916E008160809330
:100EB0006E00109281008091810082608093810099
:100EC00080918100816080938100809180008160A9
:100ED000809380008091B10084608093B100809104
:100EE000B00081608093B000809191008260809317
:100EF0009100809191008160809391008091900099
:100F00008160809390008091A10082608093A10015
:100F10008091A10081608093A1008091A0008160F8
:100F20008093A000809121018260809321018091B3
:100F30002101816080932101809120018160809353
:100F4000200180917A00846080937A0080917A00F9
:100F5000826080937A0080917A00816080937A0029
:100F600080917A00806880937A001092C10080910D
:100F70005F0390916003009711F00E94190485E2CD
:100F800092E09093600380935F030E941904809124
:100F90005F03909160030E94ED0182EC92E00E9459
:100FA000ED010E9414027E0125E1E20EF11C0E9477
:100FB00037034B015C0110E00E943703DC01CB01D9
:100FC00088199909AA09BB09853F9140A105B10576
:100FD00008F064C080915F0390916003DC01ED91A3
:100FE000FC910284F385E02D199597FDE5CF11233F
:100FF00019F0113051F00BC09C0135952795FC017B
:10100000E2279F0120FD03C0D7CF80FFD4CF91E01E
:10101000910FE1E0F0E0EC0FFD1FE10FF11D808387
:10102000953011F0192FC8CF6C817D8180E090E060
:101030000E946F0C20E030E040E85EE30E94AC0CC0
:1010400060936103709362038093630390936403DE
:101050006A817B817695679580E090E00E946F0CB5
:1010600020E030E040E85CE30E94AC0C6093650354
:101070007093660380936703909368038981282F98
:1010800030E0359527953595279520936903817034
:1010900080936A0380E090E0DC0104C082E090E885
:1010A000A0E0B0E8B7FDC1C040906103509062037A
:1010B0006090630370906403809065039090660372
:1010C000A0906703B090680310916A038091690350
:1010D0001EAA1DAA18AE1FAA1AAE19AE4AE0BE017A
:1010E0006F5F7F4F90E00E94F609BE016F5F7F4FF8
:1010F000CE01C5960E94A60518AA1FA61AAA19AA6B
:101100001CAA1BAA4AE0BE016F5F7F4F812F90E0AF
:101110000E94EB09BE016F5F7F4FCE018F960E9448
:10112000A6051AA619A61CA61BA61EA61DA68E01FC
:101130000F5F1F4F22E044E0C301B2010E94CB09C0
:10114000BC01CE0189960E94A6051BA21AA21DA26F
:101150001CA21FA21EA222E044E0C501B4010E940D
:10116000CB09BC01CE0182960E94A6051A82198283
:101170001C821B821E821D820AA11BA10115110562
:10118000A9F0AEA0BFA0B501CE0101960E94150541
:10119000811105C0CE0101960E94010507C0BE82E3
:1011A000AD82B80189819A810E94860FCE01019695
:1011B0000E946F05BE01675D7F4F0E943C050E9443
:1011C0006F05BE01615D7F4F0E943C050E946F0567
:1011D000BE016B5C7F4F0E943C05DC0114964D9173
:1011E0005C9115976D917C9182EC92E00E949A033C
:1011F00042E050E068E172E082EC92E00E949A03E3
:1012000089819A810E940A0E8AA19BA10E940A0EDE
:1012100089A59AA50E940A0E8FA598A90E940A0E78
:101220008DA99EA90E940A0EAAC00E94140280E005
:101230000E9430020E9437034B015C0180915F03E2
:1012400090916003892B09F443C080E50E94AA02B3
:1012500097FD43C044E650E060E070E0CE01829626
:101260000E94430397FD39C088A58430C9F58CA13D
:101270009DA1AEA12FA1B22FBF734497A105B105C7
:1012800078F18E010F5F1F4F0E943703DC01CB0105
:1012900088199909AA09BB0985369105A105B105E7
:1012A00018F580915F0390916003DC01ED91FC9152
:1012B0000284F385E02D199597FDE6CFF80181931F
:1012C0008F01EE16FF0601F780E090E0DC0110C010
:1012D00081E090E8A0E0B0E80BC0DC01CB0108C0E1
:1012E00080E090E8DC0104C082E090E8A0E0B0E893
:1012F000892B8A2B8B2B09F042C080915F03909140
:101300006003892B81F085E20E94AA0280E20E949C
:10131000AA0297FD08C048EE53E060E070E0CE01FD
:1013200082960E9443030E94140281E00E943002D0
:101330000E9412032B013C0188EE882E83E0982E38
:10134000A12CB12C0E941203DC01CB018419950958
:10135000A609B709883E9340A105B10598F3F1E0CD
:101360008F1A9108A108B10828EE420E23E0521E00
:10137000611C711C81149104A104B10419F70E942D
:10138000CC0415CE80915F0390916003009711F01B
:101390000C9419040895EF920F931F93CF93DF934A
:1013A000E80147FD02C034E001C034E1042E000C26
:1013B000550B57FF03C0519541955109E32E022F5C
:1013C000242FAE010E94100ACE01DF91CF911F9110
:1013D0000F91EF900895BB274A3031F4992322F4FE
:1013E000BDE2909581959F4F0C94F709BB27FB01B7
:1013F0005527AA27880F991FAA1FA41710F0A41B0E
:1014000083955051B9F7A05DAA3308F0A95DA19367
:10141000009779F7B111B1931192CB010C945F0C45
:101420008F929F92AF92BF92CF92DF92EF92FF92F4
:101430000F931F93CF93DF93CDB7DEB729970FB6E6
:10144000F894DEBF0FBECDBF6A01122FB02E2BE382
:10145000201720F0FF24F394F00E02C02CE3F22EAC
:101460000F2D27E0AE014F5F5F4F0E94870BBC013D
:101470004981842F8970813031F0E1FC06C0E0FEA3
:1014800006C090E205C09DE203C09BE201C090E06F
:101490005E2D507143FF3CC0911102C083E001C03A
:1014A00084E0811718F4212F281B01C020E051117E
:1014B0000BC0F601822F30E2882319F0319381505E
:1014C000FBCFC20ED11C20E0992329F0D6019C93BA
:1014D000F60131966F01C6010396E2FE0AC03EE4B2
:1014E000D6013C9341E411964C93119712963C938C
:1014F00006C03EE6F601308341E641833283FC01BB
:10150000322F40E2332309F442C041933150FACFE5
:1015100042FF44C0911102C083E001C084E0811702
:1015200018F4212F281B01C020E051110BC0F60137
:10153000822F30E2882319F031938150FBCFC20E05
:10154000D11C20E0992329F0D6019C93F601319615
:101550006F01C6010396E2FE0BC039E4D6013C934D
:101560003EE411963C93119736E412963C9307C0E3
:1015700039E6F60130833EE6318336E63283FC01FC
:10158000322F40E2332319F041933150FBCFFC015D
:10159000E20FF11D10828EEF9FEFA6C021E030E038
:1015A000911102C020E030E0161617061CF4FB0172
:1015B000319602C0E1E0F0E02E0F3F1FBB2021F08A
:1015C000EB2DF0E0319602C0E0E0F0E02E0F3F1F7F
:1015D000E12FF0E02E173F071CF4121B212F01C052
:1015E00020E08E2D887159F4F601822F30E2882395
:1015F00019F031938150FBCFC20ED11C20E099230A
:1016000029F0D6019C93F60131966F0151110BC060
:10161000F601822F90E3882319F091938150FBCF3C
:10162000C20ED11C20E00F2D060F9A81342F30718D
:1016300044FF03C0913309F40150101624F409301B
:1016400018F008E001C001E0AB0177FF02C040E004
:1016500050E0FB01E41BF50BA1E0B0E0AC0FBD1FB7
:10166000EA0FFB1F8EE2A82E4B01801A91080B2D6A
:1016700010E01195019511094F3FBFEF5B0721F471
:10168000D601AC9211966D01641775072CF0841683
:10169000950614F4818101C080E3415051093196CF
:1016A000D60111967D014017510724F0D6018C9385
:1016B0006701E2CF6417750739F4963320F4953348
:1016C00019F4311101C081E3F6018083F701822F03
:1016D00090E2882319F091938150FBCFF701E20F3C
:1016E000F11D108280E090E029960FB6F894DEBFDD
:1016F0000FBECDBFDF91CF911F910F91FF90EF9063
:10170000DF90CF90BF90AF909F908F90089528303A
:1017100008F027E03327DA01990F311D87FD91602A
:1017200000966105710539F432602E5F3D9330E318
:101730002A95E1F708959F3F30F0803871056105E3
:1017400009F03C5F3C5F3D93913008F08068911D4B
:10175000DF93CF931F930F93FF92EF92192F987FF0
:101760009695E92F96959695E90FFF27E653FE4F3C
:1017700099273327EE24FF24A701E7010590089459
:10178000079428F4360FE71EF81E491F511D660FF7
:10179000771F881F991F0694A1F70590079428F4D6
:1017A000E70EF81E491F561FC11D770F881F991F8E
:1017B000661F0694A1F70590079428F4F80E491FB8
:1017C000561FC71FD11D880F991F661F771F0694CC
:1017D000A1F70590079420F4490F561FC71FD81F83
:1017E000990F661F771F881F0694A9F7849110959B
:1017F000177041F0D695C79557954795F794E7949C
:101800001A95C1F7E0E7F1E06894159015913591CC
:101810006591959105907FE27395E118F10A430B6C
:10182000560BC90BD009C0F7E10CF11E431F561F20
:10183000C91FD01D7EF4703311F48A95E6CFE89469
:10184000015030F0080F0AF40027021708F4202F87
:101850002395022F7A3328F079E37D932A95E9F7CF
:1018600010C07D932A9589F60694979567953795CC
:1018700017951794E118F10A430B560BC90BD009C1
:1018800098F023957E9173957A3308F070E37C93FA
:101890002013B8F77E9170617D9330F0839571E3EA
:1018A0007D9370E32A95E1F71124EF90FF900F915B
:1018B0001F91CF91DF91992787FD90950895DC01C5
:1018C000FC01672F71917723E1F7329704C07C9177
:1018D0006D9370836291AE17BF07C8F30895E894C3
:1018E00009C097FB3EF490958095709561957F4F68
:1018F0008F4F9F4F9923A9F0F92F96E9BB27939516
:10190000F695879577956795B795F111F8CFFAF425
:10191000BB0F11F460FF1BC06F5F7F4F8F4F9F4F56
:1019200016C0882311F096E911C0772321F09EE8B4
:10193000872F762F05C0662371F096E8862F70E01A
:1019400060E02AF09A95660F771F881FDAF7880FF4
:101950009695879597F908950E94BF0C0C94300DC9
:101960000E94220D38F00E94290D20F0952311F0DD
:101970000C94190D0C941F0D11240C94640D0E94ED
:10198000410D70F3959FC1F3950F50E0551F629F75
:10199000F001729FBB27F00DB11D639FAA27F00DC8
:1019A000B11DAA1F649F6627B00DA11D661F829FEF
:1019B0002227B00DA11D621F739FB00DA11D621FD4
:1019C000839FA00D611D221F749F3327A00D611DF1
:1019D000231F849F600D211D822F762F6A2F1124D3
:1019E0009F5750409AF0F1F088234AF0EE0FFF1F06
:1019F000BB1F661F771F881F91505040A9F79E3F5D
:101A0000510580F00C94190D0C94640D5F3FE4F3C4
:101A1000983ED4F3869577956795B795F795E795B2
:101A20009F5FC1F7FE2B880F911D9695879597F9BB
:101A3000089597F99F6780E870E060E008959FEF50
:101A400080EC089500240A94161617061806090655
:101A5000089500240A941216130614060506089524
:101A6000092E0394000C11F4882352F0BB0F40F4AC
:101A7000BF2B11F460FF04C06F5F7F4F8F4F9F4FEC
:101A8000089557FD9058440F551F59F05F3F71F06E
:101A90004795880F97FB991F61F09F3F79F08795D5
:101AA0000895121613061406551FF2CF4695F1DF5E
:101AB00008C0161617061806991FF1CF86957105EE
:101AC000610508940895E894BB2766277727CB0122
:101AD00097F90895EE0FFF1F881F8BBF0790F691AF
:101AE000E02D19940F931F93CF93DF9382309105CC
:101AF00010F482E090E0E0916D03F0916E0320E03D
:101B000030E0A0E0B0E0309719F1408151810281CE
:101B1000138148175907C8F08417950769F410977F
:101B200031F012960C93129713961C9327C00093D2
:101B30006D0310936E0322C02115310519F0421771
:101B4000530718F49A01BD01EF01DF01F801DBCF63
:101B500021153105F9F0281B390B2430310580F4AB
:101B60008A819B816115710521F0FB01938382833A
:101B700004C090936E0380936D03FE01329644C0BF
:101B8000FE01E20FF31F81939193225031093983B3
:101B900028833AC020916B0330916C03232B41F4CE
:101BA000209102023091030230936C0320936B0367
:101BB00020910002309101022115310541F42DB729
:101BC0003EB74091040250910502241B350BE09171
:101BD0006B03F0916C03E217F307A0F42E1B3F0B8D
:101BE0002817390778F0AC014E5F5F4F241735078F
:101BF00048F04E0F5F1F50936C0340936B0381932B
:101C0000919302C0E0E0F0E0CF01DF91CF911F910E
:101C10000F910895CF93DF93009709F481C0FC01E1
:101C2000329713821282A0916D03B0916E031097C8
:101C300081F420813181820F931F20916B033091B9
:101C40006C032817390751F5F0936C03E0936B038D
:101C500067C0ED0120E030E0CE17DF0740F44A8195
:101C60005B819E0141155105F1F0EA01F5CFD38367
:101C7000C28340815181840F951FC817D90759F439
:101C800088819981840F951F0296918380838A8130
:101C90009B81938382832115310529F4F0936E0390
:101CA000E0936D033DC0E901FB83EA8349915991BB
:101CB000C40FD51FEC17FD0761F480819181840F5B
:101CC000951F0296E90199838883828193819B8382
:101CD0008A83E0E0F0E012968D919C911397009733
:101CE00019F0FD01DC01F7CF8D919C9111979D01B9
:101CF0002E5F3F4F820F931F20916B0330916C0337
:101D00002817390769F4309729F410926E0310925E
:101D10006D0302C013821282B0936C03A0936B0315
:101D2000DF91CF9108956F927F928F929F92AF92A1
:101D3000BF92CF92DF92EF92FF920F931F93CF93B8
:101D4000DF93009789F4CB01DF91CF911F910F9121
:101D5000FF90EF90DF90CF90BF90AF909F908F90CB
:101D60007F906F900C94720DFC01E60FF71F9C01A1
:101D700022503109E217F30708F4A9C0EC01D90198
:101D80000D911C91119706171707B0F0053011053A
:101D900008F49BC0C80104978617970708F495C0FC
:101DA00002501109061B170B019311936D937C933D
:101DB000CF010E940A0E89C05B01A01AB10A4C0132
:101DC000800E911EA0916D03B0916E03612C712C59
:101DD000E12CF12C109709F446C08D919C9111973C
:101DE000A815B905B1F56C0142E0C40ED11CCA14A6
:101DF000DB0478F14C018A189B08640142E0C40EB0
:101E0000D11C1296BC9012971396AC91B5E0CB16EC
:101E1000D10440F0B282A38391828082D9016D9374
:101E20007C9309C00E5F1F4F800F911FF9019183B2
:101E30008083EB2DFA2FE114F10431F0D7011396D2
:101E4000FC93EE93129741C0F0936E03E0936D0301
:101E50003CC06816790608F43C017D0112960D908D
:101E6000BC91A02DB7CF80916B0390916C03881625
:101E70009906E1F466167706C8F480910002909105
:101E80000102009741F48DB79EB740910402509132
:101E90000502841B950BE817F907C8F4F0936C034F
:101EA000E0936B03F901718360830FC0CB010E9443
:101EB000720D7C01009759F0A801BE010E947D0FB0
:101EC000CE010E940A0EC70104C0CE0102C080E00C
:101ED00090E0DF91CF911F910F91FF90EF90DF90F5
:101EE000CF90BF90AF909F908F907F906F9008950C
:101EF00081E090E0F8940C948D0FFB01DC0102C0AE
:101F000001900D9241505040D8F70895FB01DC013B
:101F100001900D920020E1F7089511E0C9EBD1E0A6
:101F200000E006C0802FFE010E946A0D2196011D6F
:0E1F3000CA3BD10780E00807A9F7F894FFCF5D
:101F3E0000006F038000000000005D049A03C803D8
:0C1F4E00AA04F903D703EB030D0A0000FE
:00000001FF
