:100000000C94BA010C94EB010C94EB010C94EB01F1
:100010000C94EB010C94EB010C94EB010C94EB01B0
:100020000C94EB010C94EB010C94EB010C94EB01A0
:100030000C94EB010C94EB010C94EB010C94EB0190
:100040000C94EB010C94EB010C94EB010C94EB0180
:100050000C94EB010C94EB010C94EB010C94E50572
:100060000C94EB010C94AD060C9483060C94EB01FC
:100070000C94EB010C94EB010C94EB010C94EB0150
:100080000C94EB010C94EB010C94EB010C94EB0140
:100090000C9459060C942F060C94EB010C94EB0174
:1000A0000C94EB010C94EB010C94EB010C94EB0120
:1000B0000C94EB010C94EB010C94EB010C94EB0110
:1000C0000C94EB010C94EB010C94EB010C94EB0100
:1000D0000C94EB010C94EB010C94EB010C94EB01F0
:1000E0000C94EB0119021C020B020F0213025302C3
:1000F000200224022A022E02320238023C0240026E
:10010000530246024A024E020C94F2030C9420025F
:100110000C942A020C94BE040C9440020C947704B4
:100120000C9406040C9413020C9432020C944A02B0
:100130000C9419020C940B020C944E020C943C0289
:100140000C9438020C9414040C9424020C941C0299
:100150000C94D7060C94E3030C9446020C945302BF
:100160000C949B030C94B2090C940F020C942E0275
:1001700000407A10F35A00A0724E18090010A5D45E
:10018000E80000E87648170000E40B54020000CABB
:100190009A3B000000E1F505000080969800000001
:1001A00040420F000000A086010000001027000060
:1001B0000000E803000000006400000000000A00E6
:1001C000000000000100000000002C76D888DC67E9
:1001D0004F0823DFC1DFAE59E1B1B796E5E3E45341
:1001E000C63AE651997696E8E6C28426EB898C9B5E
:1001F00062ED407C6FFCEFBC9C9F40F2BAA56FA5FE
:10020000F490055A2AF75C936B6CF9676DC11BFC7F
:10021000E0E40D47FEF520E6B500D0ED902E03009A
:10022000943577050080841E080000204E0A0000E7
:1002300000C80C333333330F986E12831141EF8DA6
:100240002114893BE65516CFFEE6DB18D1844B38E6
:100250001BF77C1D901DA4BBE424203284725E2217
:100260008100C9F124ECA1E53D2700002100240014
:1002700027002A002D003000330001010000040196
:1002800007010A0100002200250028002B002E0093
:100290003100340002010000050108010B010505D1
:1002A0000505070508080808020202020A0A0808EC
:1002B000040404040101010101010101030303031A
:1002C00003030303040707070C0C0C0C0C0C0C0CA9
:1002D0000202020206060606060606060B0B0B0BBA
:1002E0000B0B0B0B010210202008081020401020DF
:1002F00040800201020108040201010204081020EA
:1003000040808040201008040201800402018040E7
:100310002010080402010804020101020408102050
:100320004080010204081020408000000A0B0209EE
:100330000C0D0E080703040100000000000000007F
:1003400000000000000000000000000000000000AD
:10035000000000000000121110000000000000006A
:10036000000000000000000000000000000000008D
:10037000D706B20911241FBECFEFD1E2DEBFCDBF39
:1003800000E00CBF23E0ACE1B2E001C01D92AF364B
:10039000B207E1F712E0A0E0B2E0ECE6FFE100E036
:1003A0000BBF02C007900D92AC31B107D9F711E035
:1003B000C9EBD1E000E006C021970109802FFE01C2
:1003C0000E94710DC83BD10780E00807A9F70E9481
:1003D00038070C94A40F0C940000CF93C82FEDE2C3
:1003E000F3E04491E7EEF2E02491E1EAF2E0949147
:1003F000992309F46BC0442309F455C050E0FA0175
:100400003197E231F10508F04EC08827EE58FF4FD2
:100410008F4F0C94710D809180008F7707C0809171
:1004200080008F7D03C080918000877F8093800053
:100430003AC084B58F7702C084B58F7D84BD33C048
:100440008091B0008F7703C08091B0008F7D809342
:10045000B00029C0809190008F7707C080919000F4
:100460008F7D03C080919000877F809390001BC098
:100470008091A0008F7707C08091A0008F7D03C07E
:100480008091A000877F8093A0000DC03091200153
:100490003F7707C0309120013F7D03C0309120019C
:1004A000377F30932001E92FF0E0EE0FFF1FEC576C
:1004B000FD4FA591B4918FB7F894EC91C11103C091
:1004C00020952E2301C02E2B2C938FBFCF91089502
:1004D000E7EEF2E02491E1EAF2E08491882399F0DA
:1004E00090E0880F991FFC01E659FD4FA591B4914A
:1004F000FC01EC57FD4F859194918FB7F894EC91E6
:10050000E22BEC938FBF08950F931F93CF93DF934C
:10051000CDB7DEB727970FB6F894DEBF0FBECDBFBD
:10052000182F1D821C821F8205EA09838A8380910D
:100530005F0390916003DC01ED91FC910280F381F7
:10054000E02D42E050E0BE016F5F7F4F199517FF2D
:1005500035C08F81082710271F831E8280915F037B
:1005600090916003DC01ED91FC910280F381E02D1C
:1005700041E050E0BE016A5F7F4F199580915F03B3
:1005800090916003DC01ED91FC914E8150E002807E
:10059000F381E02DBE016C5F7F4F199580915F0361
:1005A00090916003DC01ED91FC910280F381E02DDC
:1005B00041E050E0BE01695F7F4F199560E070E057
:1005C000CB0127960FB6F894DEBF0FBECDBFDF91EB
:1005D000CF911F910F910895FC01A089B18982E00C
:1005E0008C93A485B5851C92A685B78580E18C93F4
:1005F000108EA489B58986E08C93A289B3898C91E9
:1006000080618C93A289B3898C9188608C93A28934
:10061000B3898C9180688C930288F389E02D808166
:100620008F7D808308953FB7F89480912102909147
:100630002202A0912302B091240226B5A89B05C0F6
:100640002F3F19F00196A11DB11D3FBFBA2FA92F51
:10065000982F8827820F911DA11DB11DBC01CD01CE
:1006600042E0660F771F881F991F4A95D1F70895BA
:100670002FB7F89460911D0270911E0280911F02A5
:10068000909120022FBF08958F929F92AF92BF92B8
:10069000CF92DF92EF92FF920F931F93CF938C0133
:1006A0006A017B010E9438034B015C01C0E00E949B
:1006B0003803DC01CB0188199909AA09BB09C816BE
:1006C000D906EA06FB0618F180915F03909160035A
:1006D000DC01ED91FC910284F385E02D199597FDE5
:1006E000E6CFCC2319F0C13029F007C0853A910537
:1006F000F1F603C08A359105C9F691E09C0FF80127
:10070000EC0FF11D8083973039F0C92FD0CF62E014
:1007100070E880E090E803C060E070E0CB01CF912A
:100720001F910F91FF90EF90DF90CF90BF90AF900F
:100730009F908F900895CF92DF92EF92FF920F9348
:100740001F93CF93DF936C017A018B01C0E0D0E05F
:10075000CE15DF0589F0D8016D918D01D601ED919F
:10076000FC910190F081E02DC6011995892B11F4BF
:100770007E0102C02196ECCFC701DF91CF911F917E
:100780000F91FF90EF90DF90CF900895FC01A0892A
:10079000B1898C91A689B78982FD0FC09C91818D0A
:1007A0008F5F8F73228D821749F0218DDF01A20F99
:1007B000B11D5D969C93818F08958C910895089545
:1007C00080E090E00895FC01538D448D252F30E0AA
:1007D000842F90E0821B930B541710F0CF9608954E
:1007E00001970895FC01918D828D981761F0828D9B
:1007F000DF01A80FB11D5D968C91928D9F5F9F7355
:10080000928F90E008958FEF9FEF0895FC01918DF6
:10081000828D981731F0828DE80FF11D858D90E063
:1008200008958FEF9FEF0895FC01918D228D892F00
:1008300090E0805C9F4F821B91098F7399270895E8
:1008400085E292E00E94140421E0892B09F420E063
:10085000822F089582EC92E00E94140421E0892BFB
:1008600009F420E0822F0895CF93DF93EC01E88113
:10087000F9810680F781E02D1995EA89FB8980814D
:100880008F7E8083EA89FB898081877F8083EA89E4
:10089000FB8980818F778083EA89FB8980818F7DC6
:1008A00080838A8D898FDF91CF910895FC01848D9B
:1008B000DF01A80FB11DA35ABF4F2C91848D90E08A
:1008C00001968F739927848FA689B7892C93A08965
:1008D000B1898C9180648C93938D848D981306C01C
:1008E0000288F389E02D80818F7D80830895EF92C7
:1008F000FF920F931F93CF93DF93EC0181E0888FDA
:100900009B8D8C8D981305C0E889F989808185FDC0
:1009100024C0F62E0B8D10E00F5F1F4F0F731127B1
:10092000E02E8C8DE8120CC00FB607FCFACFE889D8
:10093000F989808185FFF5CFCE010E945604F1CF61
:100940008B8DFE01E80FF11DE35AFF4FF0820B8FF4
:10095000EA89FB898081806207C0EE89FF89608314
:10096000E889F98980818064808381E090E0DF916B
:10097000CF911F910F91FF90EF900895CF93DF9348
:10098000EC01888D8823C9F0EA89FB89808185FD87
:1009900005C0A889B9898C9186FD0FC00FB607FCE8
:1009A000F5CF808185FFF2CFA889B9898C9185FF29
:1009B000EDCFCE010E945604E7CFDF91CF9108958D
:1009C00080E090E0892B21F00E942A04811121C04F
:1009D00080E090E0892B21F00E94200481111CC04E
:1009E00080E090E0892B41F080E090E0892B21F0BD
:1009F0000E940000811113C080E090E0892BA1F0DB
:100A000080E090E0892B81F00E94000081110AC0F3
:100A100008950E940000DCCF0E940000E1CF0E94F8
:100A20000000EACF0C9400000895CF93DF93EC010F
:100A300088819981009711F00E940E0E1982188208
:100A40001D821C821B821A82DF91CF9108950E9421
:100A50008F0F0F931F93CF93DF93EC0188819981C0
:100A6000009729F02A813B812617370788F48B01EC
:100A70006F5F7F4F0E94A60E009761F09983888375
:100A80001B830A832C813D81232B11F4FC011082EE
:100A900081E001C080E0DF91CF911F910F91089517
:100AA000EF92FF920F931F93CF93DF93EC01FB0123
:100AB00084819581E080F1800C811D81E114F10435
:100AC000B1F00097B9F0080F191FB801CE010E94CC
:100AD0002905882361F0288139818C819D81B701A6
:100AE000820F931F0E949D0F1D830C8303C0CE01B4
:100AF0000E941505CE01DF91CF911F910F91FF90BC
:100B0000EF900895EF92FF920F931F93CF93DF938F
:100B10001F921F92CDB7DEB78C018CE289831A82B7
:100B2000F801E480F580FFEFEF1AFF0AB701C80172
:100B30000E942905882381F0F80120813181848178
:100B40009581BE016F5F7F4F820F931F0E949D0FA3
:100B5000F801F582E48203C0C8010E941505C801AE
:100B60000F900F90DF91CF911F910F91FF90EF9019
:100B70000895EF92FF920F931F93CF93DF938C0111
:100B80007B016115710569F0FB0101900020E9F717
:100B90003197EF01C61BD70BBE010E9429058111B9
:100BA00004C0C8010E94150508C0F801D583C4839C
:100BB000B701808191810E949D0FC801DF91CF9183
:100BC0001F910F91FF90EF9008951F920F920FB613
:100BD0000F9211242F933F938F939F93AF93BF93C3
:100BE00080911D0290911E02A0911F02B0912002DF
:100BF00030911C0223E0230F2D3720F40196A11D14
:100C0000B11D05C026E8230F0296A11DB11D20933A
:100C10001C0280931D0290931E02A0931F02B093AA
:100C200020028091210290912202A0912302B09192
:100C300024020196A11DB11D8093210290932202EE
:100C4000A0932302B0932402BF91AF919F918F9103
:100C50003F912F910F900FBE0F901F9018951F92EC
:100C60000F920FB60F9211240BB60F922F933F9352
:100C70004F935F936F937F938F939F93AF93BF93A4
:100C8000EF93FF9385E292E00E945604FF91EF916B
:100C9000BF91AF919F918F917F916F915F914F9194
:100CA0003F912F910F900BBE0F900FBE0F901F9092
:100CB00018951F920F920FB60F9211240BB60F9238
:100CC0002F933F934F935F936F937F938F939F9354
:100CD000AF93BF93EF93FF9385E292E00E94C60328
:100CE000FF91EF91BF91AF919F918F917F916F9104
:100CF0005F914F913F912F910F900BBE0F900FBEC0
:100D00000F901F9018951F920F920FB60F921124FB
:100D10000BB60F922F933F934F935F936F937F93F5
:100D20008F939F93AF93BF93EF93FF9382EC92E0E7
:100D30000E945604FF91EF91BF91AF919F918F91C7
:100D40007F916F915F914F913F912F910F900BBECB
:100D50000F900FBE0F901F9018951F920F920FB615
:100D60000F9211240BB60F922F933F934F935F93E3
:100D70006F937F938F939F93AF93BF93EF93FF9363
:100D800082EC92E00E94C603FF91EF91BF91AF9178
:100D90009F918F917F916F915F914F913F912F9193
:100DA0000F900BBE0F900FBE0F901F901895E5E2AD
:100DB000F2E01382128248EE53E060E070E0448378
:100DC0005583668377838AE092E0918380832DEC5C
:100DD00030E0358724872CEC30E03787268728ECF5
:100DE00030E0318B208B29EC30E0338B228B2AECE6
:100DF00030E0358B248B2EEC30E0378B268B118E38
:100E0000128E138E148EE2ECF2E01382128244836F
:100E10005583668377839183808385EC90E0958703
:100E2000848784EC90E09787868780EC90E0918BB4
:100E3000808B81EC90E0938B828B82EC90E0958BA1
:100E4000848B86EC90E0978B868B118E128E138E9E
:100E5000148EEFE5F3E01182108212821382148265
:100E600015821682178210861186128613860895BF
:100E7000CF93DF93CDB7DEB7EA970FB6F894DEBF16
:100E80000FBECDBF789484B5826084BD84B5816087
:100E900084BD85B5826085BD85B5816085BD809145
:100EA0006E00816080936E001092810080918100BD
:100EB00082608093810080918100816080938100B5
:100EC000809180008160809380008091B100846077
:100ED0008093B1008091B00081608093B0008091D8
:100EE0009100826080939100809191008160809355
:100EF0009100809190008160809390008091A1008A
:100F000082608093A1008091A10081608093A10004
:100F10008091A00081608093A00080912101826077
:100F20008093210180912101816080932101809132
:100F3000200181608093200180917A0084608093F9
:100F40007A0080917A00826080937A0080917A00A2
:100F5000816080937A0080917A00806880937A0023
:100F60001092C10080915F0390916003009711F08F
:100F70000E94340485E292E09093600380935F03C3
:100F80000E94340480915F03909160030E94EC0200
:100F900082EC92E00E94EC020E946802AE014F5F78
:100FA0005F4F7A0164E1D62ED40E0E9438034B01C4
:100FB0005C018FEF9FEF10E0019609F072C10E9473
:100FC0003803DC01CB0188199909AA09BB09853FBF
:100FD0009140A105B10508F464C182E090E8A0E069
:100FE000B0E8B7FDB4C040906103509062036090D8
:100FF0006303709064038090650390906603A090F3
:101000006703B090680310916A03809169031EAA78
:101010001DAA18AE1FAA1AAE19AE4AE0B70190E099
:101020000E94E609B701CE01C5960E94B90518AA2B
:101030001FA61AAA19AA1CAA1BAA4AE0B701812F47
:1010400090E00E94DB09B701CE018F960E94B9059E
:101050001AA619A61CA61BA61EA61DA6870122E07D
:1010600044E0C301B2010E94BB09BC01CE018996D4
:101070000E94B9051BA21AA21DA21CA21FA21EA299
:1010800022E044E0C501B4010E94BB09BC01CE01CD
:1010900082960E94B9051A8219821C821B821E82C6
:1010A0001D82AAA0BBA0A114B10499F08EA09FA09C
:1010B000B401C7010E942905811104C0C7010E9423
:1010C000150507C09E828D82B50189819A810E9493
:1010D0009D0FC7010E948205BE01675D7F4F0E9480
:1010E00050050E948205BE01615D7F4F0E94500540
:1010F0000E948205BE016B5C7F4F0E945005DC019F
:1011000014964D915C9115976D917C9182EC92E0D3
:101110000E949B0342E050E068E172E082EC92E0C2
:101120000E949B0389819A810E940E0E8AA19BA135
:101130000E940E0E89A59AA50E940E0E8FA598A951
:101140000E940E0E8DA99EA90E940E0EA7C00E949D
:10115000680280E00E94ED010E9438034B015C01AF
:1011600080915F0390916003892B09F445C080E56D
:101170000E94840297FD45C044E650E060E070E0C4
:10118000CE0182960E94440397FD3BC088A584301F
:10119000D9F58CA19DA1AEA12FA1B22FBF73449709
:1011A000A105B10588F137010E943803DC01CB01AC
:1011B00088199909AA09BB0985369105A105B105C8
:1011C000B0F480915F0390916003DC01ED91FC919C
:1011D0000284F385E02D199597FDE6CFF301819305
:1011E0003F01DE12E1CF80E090E0DC0110C082E040
:1011F00090E8A0E0B0E80BC081E090E8A0E0B0E8A3
:1012000006C0DC01CB0103C080E090E8DC01892B43
:101210008A2B8B2B09F042C080915F039091600371
:10122000892B81F085E20E94840280E20E94840280
:1012300097FD08C048EE53E060E070E0CE01829672
:101240000E9444030E94680281E00E94ED010E9416
:1012500013032B013C0188EE882E83E0982EA12CED
:10126000B12C0E941303DC01CB0184199509A60956
:10127000B709883E9340A105B10558F0F1E08F1AF7
:101280009108A108B10828EE420E23E0521E611C0D
:10129000711C81149104A104B10419F70E94E004A7
:1012A00084CE80915F0390916003DC01ED91FC910D
:1012B0000284F385E02D199597FD7ECE112319F058
:1012C000113051F00BC09C0135952795DC01A22708
:1012D0009D0120FD03C070CE80FF6DCE21E0210F67
:1012E000F701E10FF11D80832530D1F56C817D81FF
:1012F00080E090E00E94760C20E030E040E85EE381
:101300000E94B30C60936103709362038093630344
:10131000909364036A817B817695679580E090E085
:101320000E94760C20E030E040E85CE30E94B30CC1
:1013300060936503709366038093670390936803DB
:101340008981282F30E0359527953595279520936D
:101350006903817080936A0380E090E0DC0141CEF4
:10136000122F2ACE80915F0390916003009711F0B5
:101370000C9434040895EF920F931F93CF93DF934F
:10138000E80147FD02C034E001C034E1E42F440F1E
:10139000FF0BF7FF03C0F195E195F109E32E022F52
:1013A0002E2FAE010E94000ACE01DF91CF911F9136
:1013B0000F91EF900895BB274A3031F4992322F41E
:1013C000BDE2909581959F4F0C94E709BB27FB01E7
:1013D0005527AA27880F991FAA1FA41710F0A41B2E
:1013E00083955051B9F7A05DAA3308F0A95DA19388
:1013F000009779F7B111B1931192CB010C94660C5F
:101400004F925F926F927F929F92AF92BF92CF92D4
:10141000DF92EF92FF920F931F93CF93DF93CDB79D
:10142000DEB729970FB6F894DEBF0FBECDBF6A01B5
:10143000122FB02E2BE3201720F0FF24F394F00E90
:1014400002C0BCE3FB2E0F2D27E0AE014F5F5F4FC4
:101450000E948E0BAC018981982F9970913031F0E8
:10146000E1FC06C0E0FE06C090E205C09DE203C0BC
:101470009BE201C090E0EE2DE07183FF3CC0911132
:1014800002C083E001C084E0811718F4212F281BDB
:1014900001C020E0E1110BC0F601822F30E2882369
:1014A00019F031938150FBCFC20ED11C20E099235B
:1014B00029F0D6019C93F60131966F01C60103967F
:1014C000E2FE0AC03EE4D6013C9341E411964C93FF
:1014D000119712963C9306C03EE6F601308341E632
:1014E00041833283FC01322F40E2332309F442C0AE
:1014F00041933150FACF82FF44C0911102C083E082
:1015000001C084E0811718F4212F281B01C020E0BE
:10151000E1110BC0F601822F30E2882319F03193DC
:101520008150FBCFC20ED11C20E0992329F0D601B7
:101530009C93F60131966F01C6010396E2FE0BC043
:1015400039E4D6013C933EE411963C93119736E47E
:1015500012963C9307C039E6F60130833EE63183AC
:1015600036E63283FC01322F40E2332319F04193F7
:101570003150FBCFFC01E20FF11D10828EEF9FEF87
:10158000B7C0F1E0911101C0F0E06F2F70E01416C8
:10159000150624F49A012F5F3F4F02C021E030E08E
:1015A000260F371FBB2029F06B2D70E06F5F7F4F38
:1015B00002C060E070E0260F371F612F70E0261731
:1015C00037071CF4121B212F01C020E03E2D38717B
:1015D00059F4D601322F60E2332319F06D93315064
:1015E000FBCFC20ED11C20E0FF2331F0D6019C932B
:1015F000B6016F5F7F4F6B01E1110BC0F601922FB7
:1016000030E3992319F031939150FBCFC20ED11CD6
:1016100020E09F2D940F3A81782F7071A72E84FFC0
:1016200003C0313309F49150191624F4993018F09D
:1016300098E001C091E0E42F852F57FF02C0E0E061
:1016400080E06E2F782FE0E0F0E0AEE29A2E3A01D3
:10165000691A71082A01461A570A0B2D10E01195D4
:10166000019511096F3F8FEF780729F4D6019C92FD
:10167000C60101966C014617570784F06616770677
:101680006CF47F01E40CF51CA1E0B0E0AC0FBD1FD1
:10169000EA0EFB1ED7011196BC9002C090E3B92E52
:1016A000615071093196C60101967C01601771077E
:1016B00024F0D601BC926C01D5CF6417750741F4B4
:1016C000363320F4353321F4A11002C081E3B82E63
:1016D000F601B082F701822F90E2882319F09193EE
:1016E0008150FBCFF701E20FF11D108280E090E006
:1016F00029960FB6F894DEBF0FBECDBFDF91CF9114
:101700001F910F91FF90EF90DF90CF90BF90AF901F
:101710009F907F906F905F904F900895283008F0D1
:1017200027E03327DA01990F311D87FD916000967C
:101730006105710539F432602E5F3D9330E32A95DF
:10174000E1F708959F3F30F080387105610509F099
:101750003C5F3C5F3D93913008F08068911DDF93C2
:10176000CF931F930F93FF92EF92192F987F969527
:10177000E92F96959695E90FFF27E653FE4F992797
:101780003327EE24FF24A701E7010590089407946E
:1017900028F4360FE71EF81E491F511D660F771FEC
:1017A000881F991F0694A1F70590079428F4E70E67
:1017B000F81E491F561FC11D770F881F991F661FEE
:1017C0000694A1F70590079428F4F80E491F561FB8
:1017D000C71FD11D880F991F661F771F0694A1F799
:1017E0000590079420F4490F561FC71FD81F990F63
:1017F000661F771F881F0694A9F7849110951770AC
:1018000041F0D695C79557954795F794E7941A9563
:10181000C1F7E0E7F1E06894159015913591659175
:10182000959105907FE27395E118F10A430B560BF1
:10183000C90BD009C0F7E10CF11E431F561FC91F89
:10184000D01D7EF4703311F48A95E6CFE8940150F0
:1018500030F0080F0AF40027021708F4202F239510
:10186000022F7A3328F079E37D932A95E9F710C0A7
:101870007D932A9589F606949795679537951795E0
:101880001794E118F10A430B560BC90BD00998F0D5
:1018900023957E9173957A3308F070E37C9320133F
:1018A000B8F77E9170617D9330F0839571E37D93FD
:1018B00070E32A95E1F71124EF90FF900F911F91AB
:1018C000CF91DF91992787FD90950895DC01FC0168
:1018D000672F71917723E1F7329704C07C916D9364
:1018E00070836291AE17BF07C8F30895E89409C0EA
:1018F00097FB3EF490958095709561957F4F8F4F43
:101900009F4F9923A9F0F92F96E9BB279395F69558
:10191000879577956795B795F111F8CFFAF4BB0FD6
:1019200011F460FF1BC06F5F7F4F8F4F9F4F16C03A
:10193000882311F096E911C0772321F09EE8872FC4
:10194000762F05C0662371F096E8862F70E060E080
:101950002AF09A95660F771F881FDAF7880F9695F9
:10196000879597F908950E94C60C0C94370D0E9434
:10197000290D38F00E94300D20F0952311F00C94C1
:10198000200D0C94260D11240C946B0D0E94480D13
:1019900070F3959FC1F3950F50E0551F629FF001C2
:1019A000729FBB27F00DB11D639FAA27F00DB11DDB
:1019B000AA1F649F6627B00DA11D661F829F222764
:1019C000B00DA11D621F739FB00DA11D621F839FEB
:1019D000A00D611D221F749F3327A00D611D231FC1
:1019E000849F600D211D822F762F6A2F11249F570F
:1019F00050409AF0F1F088234AF0EE0FFF1FBB1F12
:101A0000661F771F881F91505040A9F79E3F5105D0
:101A100080F00C94200D0C946B0D5F3FE4F3983E26
:101A2000D4F3869577956795B795F795E7959F5F7A
:101A3000C1F7FE2B880F911D9695879597F908950C
:101A400097F99F6780E870E060E008959FEF80EC71
:101A5000089500240A941616170618060906089514
:101A600000240A9412161306140605060895092E7A
:101A70000394000C11F4882352F0BB0F40F4BF2BE9
:101A800011F460FF04C06F5F7F4F8F4F9F4F089529
:101A900057FD9058440F551F59F05F3F71F047951F
:101AA000880F97FB991F61F09F3F79F08795089504
:101AB000121613061406551FF2CF4695F1DF08C023
:101AC000161617061806991FF1CF86957105610540
:101AD00008940895E894BB2766277727CB0197F9E8
:101AE0000895EE0FFF1F881F8BBF0790F691E02D22
:101AF0001994CF93DF938230910510F482E090E047
:101B0000E0916D03F0916E0320E030E0C0E0D0E0A2
:101B1000309711F14081518148175907C0F048179B
:101B2000590761F482819381209719F09B838A83FE
:101B30002BC090936E0380936D0326C02115310551
:101B400019F04217530718F49A01BE01DF01EF01A3
:101B50000280F381E02DDCCF2115310509F1281B2E
:101B6000390B2430310590F412968D919C91139786
:101B70006115710521F0FB019383828304C090936A
:101B80006E0380936D03FD01329644C0FD01E20FA8
:101B9000F31F81939193225031092D933C933AC0C6
:101BA00020916B0330916C03232B41F420910202AE
:101BB0003091030230936C0320936B032091000259
:101BC000309101022115310541F42DB73EB7409106
:101BD000040250910502241B350BE0916B03F09138
:101BE0006C03E217F307A0F42E1B3F0B28173907ED
:101BF00078F0AC014E5F5F4F2417350748F04E0F69
:101C00005F1F50936C0340936B038193919302C0C9
:101C1000E0E0F0E0CF01DF91CF9108950F931F93A3
:101C2000CF93DF93009709F48CC0FC0132971382A5
:101C3000128200916D0310916E030115110581F45C
:101C400020813181820F931F20916B0330916C03AF
:101C50002817390779F5F0936C03E0936B0371C093
:101C6000D80140E050E0AE17BF0750F412962D9116
:101C70003C911397AD012115310509F1D901F3CF3D
:101C80009D01DA013383228360817181860F971F62
:101C90008217930769F4EC0128813981260F371FD9
:101CA0002E5F3F4F318320838A819B819383828380
:101CB000452B29F4F0936E03E0936D0342C0139615
:101CC000FC93EE931297ED01499159919E01240FD7
:101CD000351FE217F30771F480819181840F951FFE
:101CE000029611969C938E938281938113969C9376
:101CF0008E931297E0E0F0E0D80112968D919C91BE
:101D00001397009719F0F8018C01F6CF8D919C91F3
:101D100098012E5F3F4F820F931F20916B033091EC
:101D20006C032817390769F4309729F410926E0371
:101D300010926D0302C01382128210936C03009301
:101D40006B03DF91CF911F910F9108956F927F9256
:101D50008F929F92AF92BF92CF92DF92EF92FF92BB
:101D60000F931F93CF93DF93EC01009789F4CB017E
:101D7000DF91CF911F910F91FF90EF90DF90CF9067
:101D8000BF90AF909F908F907F906F900C94790D43
:101D9000FC01E60FF71F9C0122503109E217F307FF
:101DA00008F4ACC0D9010D911C91119706171707C3
:101DB000B0F00530110508F49FC0C80104978617DC
:101DC000970708F499C002501109061B170B0193DD
:101DD00011936D937C93CF010E940E0E8DC05B0119
:101DE000A01AB10A4C01800E911EA0916D03B09112
:101DF0006E0340E050E0E12CF12C109709F44AC04A
:101E0000A815B905D1F56D907C901197630182E01A
:101E1000C80ED11CCA14DB0480F1A3014A195B0966
:101E20006A0182E0C80ED11C1296BC9012971396DC
:101E3000AC91B5E0CB16D10440F0B282A3835183BC
:101E40004083D9016D937C930AC00E5F1F4FC3017D
:101E5000800F911FF90191838083EB2DFA2FE114FC
:101E6000F10431F0D7011396FC93EE93129744C01E
:101E7000F0936E03E0936D033FC08D919C91119799
:101E80004817590708F4AC017D0112960D90BC91DA
:101E9000A02DB3CF80916B0390916C0388159905A9
:101EA000E1F446175707C8F48091000290910102AF
:101EB000009741F48DB79EB74091040250910502FE
:101EC000841B950BE817F907C8F4F0936C03E093B3
:101ED0006B03F901718360830FC0CB010E94790D00
:101EE0007C01009759F0A801BE010E94940FCE0119
:101EF0000E940E0EC70104C0CE0102C080E090E037
:101F0000DF91CF911F910F91FF90EF90DF90CF90D5
:101F1000BF90AF909F908F907F906F90089581E0D9
:101F200090E0F8940C94A40FFB01DC0102C0019036
:101F30000D9241505040D8F70895FB01DC0101900B
:101F40000D920020E1F7089511E0C9EBD1E000E027
:101F500006C0802FFE010E94710D2196011DCA3B13
:0C1F6000D10780E00807A9F7F894FFCF34
:101F6C0000006F0320000000000077049B03E303D4
:0C1F7C00BE041404F20306040D0A000069
:00000001FF
